{
  "_format": "hh-sol-artifact-1",
  "contractName": "ShadowFightGameDApp",
  "sourceName": "contracts/ShadowFightGameDApp.sol",
  "abi": [
    {
      "inputs": [
        {
          "internalType": "address",
          "name": "initialOwner",
          "type": "address"
        },
        {
          "internalType": "address",
          "name": "_userManager",
          "type": "address"
        },
        {
          "internalType": "address",
          "name": "_marketplace",
          "type": "address"
        },
        {
          "internalType": "address",
          "name": "_matchManager",
          "type": "address"
        }
      ],
      "stateMutability": "nonpayable",
      "type": "constructor"
    },
    {
      "inputs": [
        {
          "internalType": "address",
          "name": "owner",
          "type": "address"
        }
      ],
      "name": "OwnableInvalidOwner",
      "type": "error"
    },
    {
      "inputs": [
        {
          "internalType": "address",
          "name": "account",
          "type": "address"
        }
      ],
      "name": "OwnableUnauthorizedAccount",
      "type": "error"
    },
    {
      "anonymous": false,
      "inputs": [
        {
          "indexed": true,
          "internalType": "address",
          "name": "previousOwner",
          "type": "address"
        },
        {
          "indexed": true,
          "internalType": "address",
          "name": "newOwner",
          "type": "address"
        }
      ],
      "name": "OwnershipTransferred",
      "type": "event"
    },
    {
      "stateMutability": "payable",
      "type": "fallback"
    },
    {
      "inputs": [
        {
          "internalType": "address",
          "name": "player1",
          "type": "address"
        }
      ],
      "name": "acceptMatch",
      "outputs": [],
      "stateMutability": "payable",
      "type": "function"
    },
    {
      "inputs": [
        {
          "internalType": "string",
          "name": "username",
          "type": "string"
        }
      ],
      "name": "buyAccount",
      "outputs": [],
      "stateMutability": "payable",
      "type": "function"
    },
    {
      "inputs": [
        {
          "internalType": "string",
          "name": "username",
          "type": "string"
        }
      ],
      "name": "cancelListing",
      "outputs": [],
      "stateMutability": "nonpayable",
      "type": "function"
    },
    {
      "inputs": [],
      "name": "emergencyWithdraw",
      "outputs": [],
      "stateMutability": "nonpayable",
      "type": "function"
    },
    {
      "inputs": [
        {
          "internalType": "string",
          "name": "username",
          "type": "string"
        }
      ],
      "name": "getAddress",
      "outputs": [
        {
          "internalType": "address",
          "name": "",
          "type": "address"
        }
      ],
      "stateMutability": "view",
      "type": "function"
    },
    {
      "inputs": [],
      "name": "getContractBalance",
      "outputs": [
        {
          "internalType": "uint256",
          "name": "",
          "type": "uint256"
        }
      ],
      "stateMutability": "view",
      "type": "function"
    },
    {
      "inputs": [],
      "name": "getListedAccounts",
      "outputs": [
        {
          "internalType": "string[]",
          "name": "usernames",
          "type": "string[]"
        },
        {
          "internalType": "uint256[]",
          "name": "xps",
          "type": "uint256[]"
        },
        {
          "internalType": "uint256[]",
          "name": "prices",
          "type": "uint256[]"
        }
      ],
      "stateMutability": "view",
      "type": "function"
    },
    {
      "inputs": [
        {
          "internalType": "address",
          "name": "player1",
          "type": "address"
        },
        {
          "internalType": "address",
          "name": "player2",
          "type": "address"
        }
      ],
      "name": "getMatchId",
      "outputs": [
        {
          "internalType": "bytes32",
          "name": "",
          "type": "bytes32"
        }
      ],
      "stateMutability": "view",
      "type": "function"
    },
    {
      "inputs": [],
      "name": "getMyUsernames",
      "outputs": [
        {
          "internalType": "string[]",
          "name": "",
          "type": "string[]"
        }
      ],
      "stateMutability": "view",
      "type": "function"
    },
    {
      "inputs": [
        {
          "internalType": "address",
          "name": "user",
          "type": "address"
        }
      ],
      "name": "getUserProfile",
      "outputs": [
        {
          "internalType": "string",
          "name": "username",
          "type": "string"
        },
        {
          "internalType": "uint256",
          "name": "xp",
          "type": "uint256"
        },
        {
          "internalType": "bool",
          "name": "exists",
          "type": "bool"
        },
        {
          "internalType": "bool",
          "name": "isListed",
          "type": "bool"
        },
        {
          "internalType": "bool",
          "name": "currentlyInMatch",
          "type": "bool"
        }
      ],
      "stateMutability": "view",
      "type": "function"
    },
    {
      "inputs": [
        {
          "internalType": "address",
          "name": "user",
          "type": "address"
        }
      ],
      "name": "getUsername",
      "outputs": [
        {
          "internalType": "string",
          "name": "",
          "type": "string"
        }
      ],
      "stateMutability": "view",
      "type": "function"
    },
    {
      "inputs": [
        {
          "internalType": "string",
          "name": "username",
          "type": "string"
        }
      ],
      "name": "getXP",
      "outputs": [
        {
          "internalType": "uint256",
          "name": "",
          "type": "uint256"
        }
      ],
      "stateMutability": "view",
      "type": "function"
    },
    {
      "inputs": [
        {
          "internalType": "address",
          "name": "opponent",
          "type": "address"
        }
      ],
      "name": "initiateMatch",
      "outputs": [],
      "stateMutability": "payable",
      "type": "function"
    },
    {
      "inputs": [
        {
          "internalType": "string",
          "name": "username",
          "type": "string"
        },
        {
          "internalType": "uint256",
          "name": "price",
          "type": "uint256"
        }
      ],
      "name": "listAccountForSale",
      "outputs": [],
      "stateMutability": "nonpayable",
      "type": "function"
    },
    {
      "inputs": [],
      "name": "marketplace",
      "outputs": [
        {
          "internalType": "contract IMarketplace",
          "name": "",
          "type": "address"
        }
      ],
      "stateMutability": "view",
      "type": "function"
    },
    {
      "inputs": [],
      "name": "matchManager",
      "outputs": [
        {
          "internalType": "contract IMatchManager",
          "name": "",
          "type": "address"
        }
      ],
      "stateMutability": "view",
      "type": "function"
    },
    {
      "inputs": [],
      "name": "owner",
      "outputs": [
        {
          "internalType": "address",
          "name": "",
          "type": "address"
        }
      ],
      "stateMutability": "view",
      "type": "function"
    },
    {
      "inputs": [
        {
          "internalType": "string",
          "name": "username",
          "type": "string"
        }
      ],
      "name": "registerUser",
      "outputs": [],
      "stateMutability": "nonpayable",
      "type": "function"
    },
    {
      "inputs": [],
      "name": "renounceOwnership",
      "outputs": [],
      "stateMutability": "nonpayable",
      "type": "function"
    },
    {
      "inputs": [
        {
          "internalType": "string",
          "name": "username",
          "type": "string"
        }
      ],
      "name": "setActiveUsername",
      "outputs": [],
      "stateMutability": "nonpayable",
      "type": "function"
    },
    {
      "inputs": [
        {
          "internalType": "bytes32",
          "name": "matchId",
          "type": "bytes32"
        },
        {
          "internalType": "address",
          "name": "winner",
          "type": "address"
        }
      ],
      "name": "submitWinner",
      "outputs": [],
      "stateMutability": "nonpayable",
      "type": "function"
    },
    {
      "inputs": [
        {
          "internalType": "address",
          "name": "newOwner",
          "type": "address"
        }
      ],
      "name": "transferOwnership",
      "outputs": [],
      "stateMutability": "nonpayable",
      "type": "function"
    },
    {
      "inputs": [],
      "name": "userManager",
      "outputs": [
        {
          "internalType": "contract IUserManager",
          "name": "",
          "type": "address"
        }
      ],
      "stateMutability": "view",
      "type": "function"
    },
    {
      "stateMutability": "payable",
      "type": "receive"
    }
  ],
  "bytecode": "0x60806040523480156200001157600080fd5b50604051620028bb380380620028bb8339818101604052810190620000379190620002c1565b83600073ffffffffffffffffffffffffffffffffffffffff168173ffffffffffffffffffffffffffffffffffffffff1603620000ad5760006040517f1e4fbdf7000000000000000000000000000000000000000000000000000000008152600401620000a4919062000344565b60405180910390fd5b620000be816200019360201b60201c565b506001808190555082600260006101000a81548173ffffffffffffffffffffffffffffffffffffffff021916908373ffffffffffffffffffffffffffffffffffffffff16021790555081600360006101000a81548173ffffffffffffffffffffffffffffffffffffffff021916908373ffffffffffffffffffffffffffffffffffffffff16021790555080600460006101000a81548173ffffffffffffffffffffffffffffffffffffffff021916908373ffffffffffffffffffffffffffffffffffffffff1602179055505050505062000361565b60008060009054906101000a900473ffffffffffffffffffffffffffffffffffffffff169050816000806101000a81548173ffffffffffffffffffffffffffffffffffffffff021916908373ffffffffffffffffffffffffffffffffffffffff1602179055508173ffffffffffffffffffffffffffffffffffffffff168173ffffffffffffffffffffffffffffffffffffffff167f8be0079c531659141344cd1fd0a4f28419497f9722a3daafe3b4186f6b6457e060405160405180910390a35050565b600080fd5b600073ffffffffffffffffffffffffffffffffffffffff82169050919050565b600062000289826200025c565b9050919050565b6200029b816200027c565b8114620002a757600080fd5b50565b600081519050620002bb8162000290565b92915050565b60008060008060808587031215620002de57620002dd62000257565b5b6000620002ee87828801620002aa565b94505060206200030187828801620002aa565b93505060406200031487828801620002aa565b92505060606200032787828801620002aa565b91505092959194509250565b6200033e816200027c565b82525050565b60006020820190506200035b600083018462000333565b92915050565b61254a80620003716000396000f3fe6080604052600436106101445760003560e01c80638da5cb5b116100b6578063d004ba4d1161006f578063d004ba4d14610492578063db2e21bc146104ae578063e01061ea146104c5578063e809933d146104e1578063f2fde38b1461050e578063f99a8ac4146105375761014b565b80638da5cb5b14610358578063943f226114610383578063987ee156146103ac578063abc8c7af146103ed578063bf40fac114610418578063ce43c032146104555761014b565b806357e6f9661161010857806357e6f9661461025c5780635a6a9204146102995780635c8a7687146102c25780636f9fb98a146102ed578063704f1b9414610318578063715018a6146103415761014b565b806305d132f31461018657806314078760146101af5780632dce89cc146101d85780633cb7a2c3146102155780633d399c41146102315761014b565b3661014b57005b6040517f08c379a000000000000000000000000000000000000000000000000000000000815260040161017d90611545565b60405180910390fd5b34801561019257600080fd5b506101ad60048036038101906101a8919061160d565b610562565b005b3480156101bb57600080fd5b506101d660048036038101906101d191906116b2565b6105f5565b005b3480156101e457600080fd5b506101ff60048036038101906101fa91906116b2565b610766565b60405161020c9190611718565b60405180910390f35b61022f600480360381019061022a91906116b2565b6108ae565b005b34801561023d57600080fd5b50610246610942565b6040516102539190611885565b60405180910390f35b34801561026857600080fd5b50610283600480360381019061027e91906118a7565b6109df565b60405161029091906118f6565b60405180910390f35b3480156102a557600080fd5b506102c060048036038101906102bb919061193d565b610a87565b005b3480156102ce57600080fd5b506102d7610bf9565b6040516102e491906119fc565b60405180910390f35b3480156102f957600080fd5b50610302610c1f565b60405161030f9190611718565b60405180910390f35b34801561032457600080fd5b5061033f600480360381019061033a91906116b2565b610c27565b005b34801561034d57600080fd5b50610356610cba565b005b34801561036457600080fd5b5061036d610cce565b60405161037a9190611a26565b60405180910390f35b34801561038f57600080fd5b506103aa60048036038101906103a591906116b2565b610cf7565b005b3480156103b857600080fd5b506103d360048036038101906103ce9190611a41565b610d8a565b6040516103e4959493929190611ac2565b60405180910390f35b3480156103f957600080fd5b50610402610eeb565b60405161040f9190611b3d565b60405180910390f35b34801561042457600080fd5b5061043f600480360381019061043a91906116b2565b610f11565b60405161044c9190611a26565b60405180910390f35b34801561046157600080fd5b5061047c60048036038101906104779190611a41565b610fb9565b6040516104899190611b58565b60405180910390f35b6104ac60048036038101906104a79190611a41565b611063565b005b3480156104ba57600080fd5b506104c36110f4565b005b6104df60048036038101906104da9190611a41565b6111b2565b005b3480156104ed57600080fd5b506104f6611243565b60405161050593929190611c38565b60405180910390f35b34801561051a57600080fd5b5061053560048036038101906105309190611a41565b6112e9565b005b34801561054357600080fd5b5061054c61136f565b6040516105599190611ca5565b60405180910390f35b600460009054906101000a900473ffffffffffffffffffffffffffffffffffffffff1673ffffffffffffffffffffffffffffffffffffffff166305d132f383836040518363ffffffff1660e01b81526004016105bf929190611cc0565b600060405180830381600087803b1580156105d957600080fd5b505af11580156105ed573d6000803e3d6000fd5b505050505050565b600460009054906101000a900473ffffffffffffffffffffffffffffffffffffffff1673ffffffffffffffffffffffffffffffffffffffff1663a8a3ca5c336040518263ffffffff1660e01b81526004016106509190611a26565b602060405180830381865afa15801561066d573d6000803e3d6000fd5b505050506040513d601f19601f820116820180604052508101906106919190611d15565b156106d1576040517f08c379a00000000000000000000000000000000000000000000000000000000081526004016106c890611d8e565b60405180910390fd5b600260009054906101000a900473ffffffffffffffffffffffffffffffffffffffff1673ffffffffffffffffffffffffffffffffffffffff16633d65c26d3384846040518463ffffffff1660e01b815260040161073093929190611dea565b600060405180830381600087803b15801561074a57600080fd5b505af115801561075e573d6000803e3d6000fd5b505050505050565b600080600260009054906101000a900473ffffffffffffffffffffffffffffffffffffffff1673ffffffffffffffffffffffffffffffffffffffff1663bf40fac185856040518363ffffffff1660e01b81526004016107c6929190611e1c565b602060405180830381865afa1580156107e3573d6000803e3d6000fd5b505050506040513d601f19601f820116820180604052508101906108079190611e55565b9050600260009054906101000a900473ffffffffffffffffffffffffffffffffffffffff1673ffffffffffffffffffffffffffffffffffffffff1663e9e7eb35826040518263ffffffff1660e01b81526004016108649190611a26565b602060405180830381865afa158015610881573d6000803e3d6000fd5b505050506040513d601f19601f820116820180604052508101906108a59190611e97565b91505092915050565b600360009054906101000a900473ffffffffffffffffffffffffffffffffffffffff1673ffffffffffffffffffffffffffffffffffffffff16633cb7a2c33484846040518463ffffffff1660e01b815260040161090c929190611e1c565b6000604051808303818588803b15801561092557600080fd5b505af1158015610939573d6000803e3d6000fd5b50505050505050565b6060600260009054906101000a900473ffffffffffffffffffffffffffffffffffffffff1673ffffffffffffffffffffffffffffffffffffffff16633d399c416040518163ffffffff1660e01b8152600401600060405180830381865afa1580156109b1573d6000803e3d6000fd5b505050506040513d6000823e3d601f19601f820116820180604052508101906109da91906120c6565b905090565b6000600460009054906101000a900473ffffffffffffffffffffffffffffffffffffffff1673ffffffffffffffffffffffffffffffffffffffff166357e6f96684846040518363ffffffff1660e01b8152600401610a3e92919061210f565b602060405180830381865afa158015610a5b573d6000803e3d6000fd5b505050506040513d601f19601f82011682018060405250810190610a7f919061214d565b905092915050565b600460009054906101000a900473ffffffffffffffffffffffffffffffffffffffff1673ffffffffffffffffffffffffffffffffffffffff1663a8a3ca5c336040518263ffffffff1660e01b8152600401610ae29190611a26565b602060405180830381865afa158015610aff573d6000803e3d6000fd5b505050506040513d601f19601f82011682018060405250810190610b239190611d15565b15610b63576040517f08c379a0000000000000000000000000000000000000000000000000000000008152600401610b5a906121c6565b60405180910390fd5b600360009054906101000a900473ffffffffffffffffffffffffffffffffffffffff1673ffffffffffffffffffffffffffffffffffffffff16635a6a92048484846040518463ffffffff1660e01b8152600401610bc2939291906121e6565b600060405180830381600087803b158015610bdc57600080fd5b505af1158015610bf0573d6000803e3d6000fd5b50505050505050565b600260009054906101000a900473ffffffffffffffffffffffffffffffffffffffff1681565b600047905090565b600260009054906101000a900473ffffffffffffffffffffffffffffffffffffffff1673ffffffffffffffffffffffffffffffffffffffff1663704f1b9483836040518363ffffffff1660e01b8152600401610c84929190611e1c565b600060405180830381600087803b158015610c9e57600080fd5b505af1158015610cb2573d6000803e3d6000fd5b505050505050565b610cc2611395565b610ccc600061141c565b565b60008060009054906101000a900473ffffffffffffffffffffffffffffffffffffffff16905090565b600360009054906101000a900473ffffffffffffffffffffffffffffffffffffffff1673ffffffffffffffffffffffffffffffffffffffff1663943f226183836040518363ffffffff1660e01b8152600401610d54929190611e1c565b600060405180830381600087803b158015610d6e57600080fd5b505af1158015610d82573d6000803e3d6000fd5b505050505050565b6060600080600080600260009054906101000a900473ffffffffffffffffffffffffffffffffffffffff1673ffffffffffffffffffffffffffffffffffffffff1663987ee156876040518263ffffffff1660e01b8152600401610ded9190611a26565b600060405180830381865afa158015610e0a573d6000803e3d6000fd5b505050506040513d6000823e3d601f19601f82011682018060405250810190610e339190612218565b5080955081965082975083985050505050600460009054906101000a900473ffffffffffffffffffffffffffffffffffffffff1673ffffffffffffffffffffffffffffffffffffffff1663a8a3ca5c876040518263ffffffff1660e01b8152600401610e9f9190611a26565b602060405180830381865afa158015610ebc573d6000803e3d6000fd5b505050506040513d601f19601f82011682018060405250810190610ee09190611d15565b905091939590929450565b600360009054906101000a900473ffffffffffffffffffffffffffffffffffffffff1681565b6000600260009054906101000a900473ffffffffffffffffffffffffffffffffffffffff1673ffffffffffffffffffffffffffffffffffffffff1663bf40fac184846040518363ffffffff1660e01b8152600401610f70929190611e1c565b602060405180830381865afa158015610f8d573d6000803e3d6000fd5b505050506040513d601f19601f82011682018060405250810190610fb19190611e55565b905092915050565b6060600260009054906101000a900473ffffffffffffffffffffffffffffffffffffffff1673ffffffffffffffffffffffffffffffffffffffff1663ce43c032836040518263ffffffff1660e01b81526004016110169190611a26565b600060405180830381865afa158015611033573d6000803e3d6000fd5b505050506040513d6000823e3d601f19601f8201168201806040525081019061105c91906122af565b9050919050565b600460009054906101000a900473ffffffffffffffffffffffffffffffffffffffff1673ffffffffffffffffffffffffffffffffffffffff1663d004ba4d34836040518363ffffffff1660e01b81526004016110bf9190611a26565b6000604051808303818588803b1580156110d857600080fd5b505af11580156110ec573d6000803e3d6000fd5b505050505050565b6110fc611395565b6000611106610cce565b73ffffffffffffffffffffffffffffffffffffffff164760405161112990612329565b60006040518083038185875af1925050503d8060008114611166576040519150601f19603f3d011682016040523d82523d6000602084013e61116b565b606091505b50509050806111af576040517f08c379a00000000000000000000000000000000000000000000000000000000081526004016111a69061238a565b60405180910390fd5b50565b600460009054906101000a900473ffffffffffffffffffffffffffffffffffffffff1673ffffffffffffffffffffffffffffffffffffffff1663e01061ea34836040518363ffffffff1660e01b815260040161120e9190611a26565b6000604051808303818588803b15801561122757600080fd5b505af115801561123b573d6000803e3d6000fd5b505050505050565b6060806060600360009054906101000a900473ffffffffffffffffffffffffffffffffffffffff1673ffffffffffffffffffffffffffffffffffffffff1663e809933d6040518163ffffffff1660e01b8152600401600060405180830381865afa1580156112b5573d6000803e3d6000fd5b505050506040513d6000823e3d601f19601f820116820180604052508101906112de919061246d565b925092509250909192565b6112f1611395565b600073ffffffffffffffffffffffffffffffffffffffff168173ffffffffffffffffffffffffffffffffffffffff16036113635760006040517f1e4fbdf700000000000000000000000000000000000000000000000000000000815260040161135a9190611a26565b60405180910390fd5b61136c8161141c565b50565b600460009054906101000a900473ffffffffffffffffffffffffffffffffffffffff1681565b61139d6114e0565b73ffffffffffffffffffffffffffffffffffffffff166113bb610cce565b73ffffffffffffffffffffffffffffffffffffffff161461141a576113de6114e0565b6040517f118cdaa70000000000000000000000000000000000000000000000000000000081526004016114119190611a26565b60405180910390fd5b565b60008060009054906101000a900473ffffffffffffffffffffffffffffffffffffffff169050816000806101000a81548173ffffffffffffffffffffffffffffffffffffffff021916908373ffffffffffffffffffffffffffffffffffffffff1602179055508173ffffffffffffffffffffffffffffffffffffffff168173ffffffffffffffffffffffffffffffffffffffff167f8be0079c531659141344cd1fd0a4f28419497f9722a3daafe3b4186f6b6457e060405160405180910390a35050565b600033905090565b600082825260208201905092915050565b7f46756e6374696f6e206e6f7420666f756e640000000000000000000000000000600082015250565b600061152f6012836114e8565b915061153a826114f9565b602082019050919050565b6000602082019050818103600083015261155e81611522565b9050919050565b6000604051905090565b600080fd5b600080fd5b6000819050919050565b61158c81611579565b811461159757600080fd5b50565b6000813590506115a981611583565b92915050565b600073ffffffffffffffffffffffffffffffffffffffff82169050919050565b60006115da826115af565b9050919050565b6115ea816115cf565b81146115f557600080fd5b50565b600081359050611607816115e1565b92915050565b600080604083850312156116245761162361156f565b5b60006116328582860161159a565b9250506020611643858286016115f8565b9150509250929050565b600080fd5b600080fd5b600080fd5b60008083601f8401126116725761167161164d565b5b8235905067ffffffffffffffff81111561168f5761168e611652565b5b6020830191508360018202830111156116ab576116aa611657565b5b9250929050565b600080602083850312156116c9576116c861156f565b5b600083013567ffffffffffffffff8111156116e7576116e6611574565b5b6116f38582860161165c565b92509250509250929050565b6000819050919050565b611712816116ff565b82525050565b600060208201905061172d6000830184611709565b92915050565b600081519050919050565b600082825260208201905092915050565b6000819050602082019050919050565b600081519050919050565b600082825260208201905092915050565b60005b8381101561179957808201518184015260208101905061177e565b60008484015250505050565b6000601f19601f8301169050919050565b60006117c18261175f565b6117cb818561176a565b93506117db81856020860161177b565b6117e4816117a5565b840191505092915050565b60006117fb83836117b6565b905092915050565b6000602082019050919050565b600061181b82611733565b611825818561173e565b9350836020820285016118378561174f565b8060005b85811015611873578484038952815161185485826117ef565b945061185f83611803565b925060208a0199505060018101905061183b565b50829750879550505050505092915050565b6000602082019050818103600083015261189f8184611810565b905092915050565b600080604083850312156118be576118bd61156f565b5b60006118cc858286016115f8565b92505060206118dd858286016115f8565b9150509250929050565b6118f081611579565b82525050565b600060208201905061190b60008301846118e7565b92915050565b61191a816116ff565b811461192557600080fd5b50565b60008135905061193781611911565b92915050565b6000806000604084860312156119565761195561156f565b5b600084013567ffffffffffffffff81111561197457611973611574565b5b6119808682870161165c565b9350935050602061199386828701611928565b9150509250925092565b6000819050919050565b60006119c26119bd6119b8846115af565b61199d565b6115af565b9050919050565b60006119d4826119a7565b9050919050565b60006119e6826119c9565b9050919050565b6119f6816119db565b82525050565b6000602082019050611a1160008301846119ed565b92915050565b611a20816115cf565b82525050565b6000602082019050611a3b6000830184611a17565b92915050565b600060208284031215611a5757611a5661156f565b5b6000611a65848285016115f8565b91505092915050565b6000611a798261175f565b611a8381856114e8565b9350611a9381856020860161177b565b611a9c816117a5565b840191505092915050565b60008115159050919050565b611abc81611aa7565b82525050565b600060a0820190508181036000830152611adc8188611a6e565b9050611aeb6020830187611709565b611af86040830186611ab3565b611b056060830185611ab3565b611b126080830184611ab3565b9695505050505050565b6000611b27826119c9565b9050919050565b611b3781611b1c565b82525050565b6000602082019050611b526000830184611b2e565b92915050565b60006020820190508181036000830152611b728184611a6e565b905092915050565b600081519050919050565b600082825260208201905092915050565b6000819050602082019050919050565b611baf816116ff565b82525050565b6000611bc18383611ba6565b60208301905092915050565b6000602082019050919050565b6000611be582611b7a565b611bef8185611b85565b9350611bfa83611b96565b8060005b83811015611c2b578151611c128882611bb5565b9750611c1d83611bcd565b925050600181019050611bfe565b5085935050505092915050565b60006060820190508181036000830152611c528186611810565b90508181036020830152611c668185611bda565b90508181036040830152611c7a8184611bda565b9050949350505050565b6000611c8f826119c9565b9050919050565b611c9f81611c84565b82525050565b6000602082019050611cba6000830184611c96565b92915050565b6000604082019050611cd560008301856118e7565b611ce26020830184611a17565b9392505050565b611cf281611aa7565b8114611cfd57600080fd5b50565b600081519050611d0f81611ce9565b92915050565b600060208284031215611d2b57611d2a61156f565b5b6000611d3984828501611d00565b91505092915050565b7f43616e6e6f7420737769746368207768696c6520696e206d6174636800000000600082015250565b6000611d78601c836114e8565b9150611d8382611d42565b602082019050919050565b60006020820190508181036000830152611da781611d6b565b9050919050565b82818337600083830152505050565b6000611dc983856114e8565b9350611dd6838584611dae565b611ddf836117a5565b840190509392505050565b6000604082019050611dff6000830186611a17565b8181036020830152611e12818486611dbd565b9050949350505050565b60006020820190508181036000830152611e37818486611dbd565b90509392505050565b600081519050611e4f816115e1565b92915050565b600060208284031215611e6b57611e6a61156f565b5b6000611e7984828501611e40565b91505092915050565b600081519050611e9181611911565b92915050565b600060208284031215611ead57611eac61156f565b5b6000611ebb84828501611e82565b91505092915050565b7f4e487b7100000000000000000000000000000000000000000000000000000000600052604160045260246000fd5b611efc826117a5565b810181811067ffffffffffffffff82111715611f1b57611f1a611ec4565b5b80604052505050565b6000611f2e611565565b9050611f3a8282611ef3565b919050565b600067ffffffffffffffff821115611f5a57611f59611ec4565b5b602082029050602081019050919050565b600080fd5b600067ffffffffffffffff821115611f8b57611f8a611ec4565b5b611f94826117a5565b9050602081019050919050565b6000611fb4611faf84611f70565b611f24565b905082815260208101848484011115611fd057611fcf611f6b565b5b611fdb84828561177b565b509392505050565b600082601f830112611ff857611ff761164d565b5b8151612008848260208601611fa1565b91505092915050565b600061202461201f84611f3f565b611f24565b9050808382526020820190506020840283018581111561204757612046611657565b5b835b8181101561208e57805167ffffffffffffffff81111561206c5761206b61164d565b5b8086016120798982611fe3565b85526020850194505050602081019050612049565b5050509392505050565b600082601f8301126120ad576120ac61164d565b5b81516120bd848260208601612011565b91505092915050565b6000602082840312156120dc576120db61156f565b5b600082015167ffffffffffffffff8111156120fa576120f9611574565b5b61210684828501612098565b91505092915050565b60006040820190506121246000830185611a17565b6121316020830184611a17565b9392505050565b60008151905061214781611583565b92915050565b6000602082840312156121635761216261156f565b5b600061217184828501612138565b91505092915050565b7f43616e6e6f74206c697374207768696c6520696e206d61746368000000000000600082015250565b60006121b0601a836114e8565b91506121bb8261217a565b602082019050919050565b600060208201905081810360008301526121df816121a3565b9050919050565b60006040820190508181036000830152612201818587611dbd565b90506122106020830184611709565b949350505050565b600080600080600060a086880312156122345761223361156f565b5b600086015167ffffffffffffffff81111561225257612251611574565b5b61225e88828901611fe3565b955050602061226f88828901611e82565b945050604061228088828901611d00565b935050606061229188828901611d00565b92505060806122a288828901611d00565b9150509295509295909350565b6000602082840312156122c5576122c461156f565b5b600082015167ffffffffffffffff8111156122e3576122e2611574565b5b6122ef84828501611fe3565b91505092915050565b600081905092915050565b50565b60006123136000836122f8565b915061231e82612303565b600082019050919050565b600061233482612306565b9150819050919050565b7f456d657267656e6379207769746864726177616c206661696c65640000000000600082015250565b6000612374601b836114e8565b915061237f8261233e565b602082019050919050565b600060208201905081810360008301526123a381612367565b9050919050565b600067ffffffffffffffff8211156123c5576123c4611ec4565b5b602082029050602081019050919050565b60006123e96123e4846123aa565b611f24565b9050808382526020820190506020840283018581111561240c5761240b611657565b5b835b8181101561243557806124218882611e82565b84526020840193505060208101905061240e565b5050509392505050565b600082601f8301126124545761245361164d565b5b81516124648482602086016123d6565b91505092915050565b6000806000606084860312156124865761248561156f565b5b600084015167ffffffffffffffff8111156124a4576124a3611574565b5b6124b086828701612098565b935050602084015167ffffffffffffffff8111156124d1576124d0611574565b5b6124dd8682870161243f565b925050604084015167ffffffffffffffff8111156124fe576124fd611574565b5b61250a8682870161243f565b915050925092509256fea26469706673582212207927012d568473bf5f17e59517bf86b10da6b6c5308e35bc8b7423686006a22864736f6c63430008140033",
  "linkReferences": {},
  "deployedLinkReferences": {}
}