{
  "_format": "hh-sol-artifact-1",
  "contractName": "UserManager",
  "sourceName": "contracts/UserManager.sol",
  "abi": [
    {
      "inputs": [
        {
          "internalType": "address",
          "name": "initialOwner",
          "type": "address"
        }
      ],
      "stateMutability": "nonpayable",
      "type": "constructor"
    },
    {
      "inputs": [
        {
          "internalType": "address",
          "name": "owner",
          "type": "address"
        }
      ],
      "name": "OwnableInvalidOwner",
      "type": "error"
    },
    {
      "inputs": [
        {
          "internalType": "address",
          "name": "account",
          "type": "address"
        }
      ],
      "name": "OwnableUnauthorizedAccount",
      "type": "error"
    },
    {
      "anonymous": false,
      "inputs": [
        {
          "indexed": true,
          "internalType": "address",
          "name": "user",
          "type": "address"
        },
        {
          "indexed": false,
          "internalType": "string",
          "name": "username",
          "type": "string"
        }
      ],
      "name": "ActiveUsernameChanged",
      "type": "event"
    },
    {
      "anonymous": false,
      "inputs": [
        {
          "indexed": true,
          "internalType": "address",
          "name": "previousOwner",
          "type": "address"
        },
        {
          "indexed": true,
          "internalType": "address",
          "name": "newOwner",
          "type": "address"
        }
      ],
      "name": "OwnershipTransferred",
      "type": "event"
    },
    {
      "anonymous": false,
      "inputs": [
        {
          "indexed": true,
          "internalType": "address",
          "name": "user",
          "type": "address"
        },
        {
          "indexed": false,
          "internalType": "string",
          "name": "username",
          "type": "string"
        }
      ],
      "name": "UserRegistered",
      "type": "event"
    },
    {
      "anonymous": false,
      "inputs": [
        {
          "indexed": true,
          "internalType": "address",
          "name": "user",
          "type": "address"
        },
        {
          "indexed": false,
          "internalType": "string",
          "name": "username",
          "type": "string"
        },
        {
          "indexed": false,
          "internalType": "uint256",
          "name": "newXP",
          "type": "uint256"
        }
      ],
      "name": "XPUpdated",
      "type": "event"
    },
    {
      "inputs": [],
      "name": "MAX_USERNAME_LENGTH",
      "outputs": [
        {
          "internalType": "uint256",
          "name": "",
          "type": "uint256"
        }
      ],
      "stateMutability": "view",
      "type": "function"
    },
    {
      "inputs": [],
      "name": "MIN_USERNAME_LENGTH",
      "outputs": [
        {
          "internalType": "uint256",
          "name": "",
          "type": "uint256"
        }
      ],
      "stateMutability": "view",
      "type": "function"
    },
    {
      "inputs": [
        {
          "internalType": "address",
          "name": "",
          "type": "address"
        }
      ],
      "name": "activeUsername",
      "outputs": [
        {
          "internalType": "string",
          "name": "",
          "type": "string"
        }
      ],
      "stateMutability": "view",
      "type": "function"
    },
    {
      "inputs": [
        {
          "internalType": "address",
          "name": "contractAddr",
          "type": "address"
        }
      ],
      "name": "authorizeContract",
      "outputs": [],
      "stateMutability": "nonpayable",
      "type": "function"
    },
    {
      "inputs": [
        {
          "internalType": "address",
          "name": "",
          "type": "address"
        }
      ],
      "name": "authorizedContracts",
      "outputs": [
        {
          "internalType": "bool",
          "name": "",
          "type": "bool"
        }
      ],
      "stateMutability": "view",
      "type": "function"
    },
    {
      "inputs": [
        {
          "internalType": "address",
          "name": "user",
          "type": "address"
        }
      ],
      "name": "getActiveUsername",
      "outputs": [
        {
          "internalType": "string",
          "name": "",
          "type": "string"
        }
      ],
      "stateMutability": "view",
      "type": "function"
    },
    {
      "inputs": [
        {
          "internalType": "string",
          "name": "username",
          "type": "string"
        }
      ],
      "name": "getAddress",
      "outputs": [
        {
          "internalType": "address",
          "name": "",
          "type": "address"
        }
      ],
      "stateMutability": "view",
      "type": "function"
    },
    {
      "inputs": [],
      "name": "getMyUsernames",
      "outputs": [
        {
          "internalType": "string[]",
          "name": "",
          "type": "string[]"
        }
      ],
      "stateMutability": "view",
      "type": "function"
    },
    {
      "inputs": [
        {
          "internalType": "address",
          "name": "user",
          "type": "address"
        }
      ],
      "name": "getUserProfile",
      "outputs": [
        {
          "internalType": "string",
          "name": "username",
          "type": "string"
        },
        {
          "internalType": "uint256",
          "name": "xp",
          "type": "uint256"
        },
        {
          "internalType": "bool",
          "name": "exists",
          "type": "bool"
        },
        {
          "internalType": "bool",
          "name": "isListed",
          "type": "bool"
        },
        {
          "internalType": "bool",
          "name": "currentlyInMatch",
          "type": "bool"
        }
      ],
      "stateMutability": "view",
      "type": "function"
    },
    {
      "inputs": [
        {
          "internalType": "address",
          "name": "user",
          "type": "address"
        }
      ],
      "name": "getUserXP",
      "outputs": [
        {
          "internalType": "uint256",
          "name": "",
          "type": "uint256"
        }
      ],
      "stateMutability": "view",
      "type": "function"
    },
    {
      "inputs": [
        {
          "internalType": "address",
          "name": "user",
          "type": "address"
        }
      ],
      "name": "getUsername",
      "outputs": [
        {
          "internalType": "string",
          "name": "",
          "type": "string"
        }
      ],
      "stateMutability": "view",
      "type": "function"
    },
    {
      "inputs": [
        {
          "internalType": "address",
          "name": "user",
          "type": "address"
        }
      ],
      "name": "isUserListed",
      "outputs": [
        {
          "internalType": "bool",
          "name": "",
          "type": "bool"
        }
      ],
      "stateMutability": "view",
      "type": "function"
    },
    {
      "inputs": [],
      "name": "owner",
      "outputs": [
        {
          "internalType": "address",
          "name": "",
          "type": "address"
        }
      ],
      "stateMutability": "view",
      "type": "function"
    },
    {
      "inputs": [
        {
          "internalType": "address",
          "name": "user",
          "type": "address"
        },
        {
          "internalType": "string",
          "name": "username",
          "type": "string"
        }
      ],
      "name": "ownsUsername",
      "outputs": [
        {
          "internalType": "bool",
          "name": "",
          "type": "bool"
        }
      ],
      "stateMutability": "view",
      "type": "function"
    },
    {
      "inputs": [
        {
          "internalType": "string",
          "name": "username",
          "type": "string"
        }
      ],
      "name": "registerUser",
      "outputs": [],
      "stateMutability": "nonpayable",
      "type": "function"
    },
    {
      "inputs": [],
      "name": "renounceOwnership",
      "outputs": [],
      "stateMutability": "nonpayable",
      "type": "function"
    },
    {
      "inputs": [
        {
          "internalType": "address",
          "name": "contractAddr",
          "type": "address"
        }
      ],
      "name": "revokeContract",
      "outputs": [],
      "stateMutability": "nonpayable",
      "type": "function"
    },
    {
      "inputs": [
        {
          "internalType": "address",
          "name": "user",
          "type": "address"
        },
        {
          "internalType": "string",
          "name": "username",
          "type": "string"
        }
      ],
      "name": "setActiveUsername",
      "outputs": [],
      "stateMutability": "nonpayable",
      "type": "function"
    },
    {
      "inputs": [
        {
          "internalType": "address",
          "name": "user",
          "type": "address"
        },
        {
          "internalType": "bool",
          "name": "status",
          "type": "bool"
        }
      ],
      "name": "setListingStatus",
      "outputs": [],
      "stateMutability": "nonpayable",
      "type": "function"
    },
    {
      "inputs": [
        {
          "internalType": "address",
          "name": "newOwner",
          "type": "address"
        }
      ],
      "name": "transferOwnership",
      "outputs": [],
      "stateMutability": "nonpayable",
      "type": "function"
    },
    {
      "inputs": [
        {
          "internalType": "string",
          "name": "username",
          "type": "string"
        },
        {
          "internalType": "address",
          "name": "oldOwner",
          "type": "address"
        },
        {
          "internalType": "address",
          "name": "newOwner",
          "type": "address"
        },
        {
          "internalType": "uint256",
          "name": "xpSnapshot",
          "type": "uint256"
        }
      ],
      "name": "transferUsername",
      "outputs": [],
      "stateMutability": "nonpayable",
      "type": "function"
    },
    {
      "inputs": [
        {
          "internalType": "address",
          "name": "user",
          "type": "address"
        },
        {
          "internalType": "uint256",
          "name": "xpToAdd",
          "type": "uint256"
        }
      ],
      "name": "updateXP",
      "outputs": [],
      "stateMutability": "nonpayable",
      "type": "function"
    },
    {
      "inputs": [
        {
          "internalType": "address",
          "name": "user",
          "type": "address"
        }
      ],
      "name": "userExists",
      "outputs": [
        {
          "internalType": "bool",
          "name": "",
          "type": "bool"
        }
      ],
      "stateMutability": "view",
      "type": "function"
    },
    {
      "inputs": [
        {
          "internalType": "address",
          "name": "",
          "type": "address"
        },
        {
          "internalType": "uint256",
          "name": "",
          "type": "uint256"
        }
      ],
      "name": "userOwnedUsernames",
      "outputs": [
        {
          "internalType": "string",
          "name": "",
          "type": "string"
        }
      ],
      "stateMutability": "view",
      "type": "function"
    },
    {
      "inputs": [
        {
          "internalType": "address",
          "name": "",
          "type": "address"
        }
      ],
      "name": "userProfiles",
      "outputs": [
        {
          "internalType": "string",
          "name": "username",
          "type": "string"
        },
        {
          "internalType": "uint256",
          "name": "xp",
          "type": "uint256"
        },
        {
          "internalType": "bool",
          "name": "exists",
          "type": "bool"
        },
        {
          "internalType": "bool",
          "name": "isListed",
          "type": "bool"
        }
      ],
      "stateMutability": "view",
      "type": "function"
    },
    {
      "inputs": [
        {
          "internalType": "string",
          "name": "",
          "type": "string"
        }
      ],
      "name": "usernameToAddress",
      "outputs": [
        {
          "internalType": "address",
          "name": "",
          "type": "address"
        }
      ],
      "stateMutability": "view",
      "type": "function"
    }
  ],
  "bytecode": "0x60806040523480156200001157600080fd5b50604051620039b4380380620039b48339818101604052810190620000379190620001fb565b80600073ffffffffffffffffffffffffffffffffffffffff168173ffffffffffffffffffffffffffffffffffffffff1603620000ad5760006040517f1e4fbdf7000000000000000000000000000000000000000000000000000000008152600401620000a491906200023e565b60405180910390fd5b620000be81620000cd60201b60201c565b5060018081905550506200025b565b60008060009054906101000a900473ffffffffffffffffffffffffffffffffffffffff169050816000806101000a81548173ffffffffffffffffffffffffffffffffffffffff021916908373ffffffffffffffffffffffffffffffffffffffff1602179055508173ffffffffffffffffffffffffffffffffffffffff168173ffffffffffffffffffffffffffffffffffffffff167f8be0079c531659141344cd1fd0a4f28419497f9722a3daafe3b4186f6b6457e060405160405180910390a35050565b600080fd5b600073ffffffffffffffffffffffffffffffffffffffff82169050919050565b6000620001c38262000196565b9050919050565b620001d581620001b6565b8114620001e157600080fd5b50565b600081519050620001f581620001ca565b92915050565b60006020828403121562000214576200021362000191565b5b60006200022484828501620001e4565b91505092915050565b6200023881620001b6565b82525050565b60006020820190506200025560008301846200022d565b92915050565b613749806200026b6000396000f3fe608060405234801561001057600080fd5b506004361061018e5760003560e01c80638f3529c1116100de578063bf40fac111610097578063d5b9221b11610071578063d5b9221b146104c0578063e9e7eb35146104f0578063f2fde38b14610520578063f825f1431461053c5761018e565b8063bf40fac114610444578063cc2e3ee114610474578063ce43c032146104905761018e565b80638f3529c114610334578063907e6d6314610364578063953a526a14610380578063987ee156146103b0578063af739dbd146103e4578063b7f7054e146104145761018e565b80633d65c26d1161014b57806368bc60441161012557806368bc6044146102d4578063704f1b94146102f0578063715018a61461030c5780638da5cb5b146103165761018e565b80633d65c26d14610280578063415d39611461029c57806367561d93146102b85761018e565b8063091c18aa146101935780630e666e49146101c3578063155b1d98146101f35780631cd896c114610211578063332d56d71461022f5780633d399c4114610262575b600080fd5b6101ad60048036038101906101a8919061242d565b61056c565b6040516101ba9190612475565b60405180910390f35b6101dd60048036038101906101d8919061242d565b6105c5565b6040516101ea9190612475565b60405180910390f35b6101fb61061e565b60405161020891906124a9565b60405180910390f35b610219610623565b60405161022691906124a9565b60405180910390f35b6102496004803603810190610244919061242d565b610628565b6040516102599493929190612554565b60405180910390f35b61026a6106fa565b60405161027791906126ac565b60405180910390f35b61029a60048036038101906102959190612733565b610810565b005b6102b660048036038101906102b191906127bf565b610a24565b005b6102d260048036038101906102cd919061242d565b610cac565b005b6102ee60048036038101906102e9919061292f565b610d0f565b005b61030a600480360381019061030591906129b2565b6111aa565b005b61031461168c565b005b61031e6116a0565b60405161032b9190612a0e565b60405180910390f35b61034e60048036038101906103499190612733565b6116c9565b60405161035b9190612475565b60405180910390f35b61037e60048036038101906103799190612a55565b611743565b005b61039a6004803603810190610395919061242d565b6118f9565b6040516103a79190612a95565b60405180910390f35b6103ca60048036038101906103c5919061242d565b6119ca565b6040516103db959493929190612ab7565b60405180910390f35b6103fe60048036038101906103f9919061242d565b611b1c565b60405161040b9190612a95565b60405180910390f35b61042e600480360381019061042991906127bf565b611bbc565b60405161043b9190612a95565b60405180910390f35b61045e600480360381019061045991906129b2565b611c75565b60405161046b9190612a0e565b60405180910390f35b61048e6004803603810190610489919061242d565b611cc0565b005b6104aa60048036038101906104a5919061242d565b611d23565b6040516104b79190612a95565b60405180910390f35b6104da60048036038101906104d5919061242d565b611df7565b6040516104e79190612475565b60405180910390f35b61050a6004803603810190610505919061242d565b611e17565b60405161051791906124a9565b60405180910390f35b61053a6004803603810190610535919061242d565b611e63565b005b61055660048036038101906105519190612b11565b611ee9565b6040516105639190612a0e565b60405180910390f35b6000600260008373ffffffffffffffffffffffffffffffffffffffff1673ffffffffffffffffffffffffffffffffffffffff16815260200190815260200160002060020160019054906101000a900460ff169050919050565b6000600260008373ffffffffffffffffffffffffffffffffffffffff1673ffffffffffffffffffffffffffffffffffffffff16815260200190815260200160002060020160009054906101000a900460ff169050919050565b600381565b601481565b600260205280600052604060002060009150905080600001805461064b90612b89565b80601f016020809104026020016040519081016040528092919081815260200182805461067790612b89565b80156106c45780601f10610699576101008083540402835291602001916106c4565b820191906000526020600020905b8154815290600101906020018083116106a757829003601f168201915b5050505050908060010154908060020160009054906101000a900460ff16908060020160019054906101000a900460ff16905084565b6060600460003373ffffffffffffffffffffffffffffffffffffffff1673ffffffffffffffffffffffffffffffffffffffff168152602001908152602001600020805480602002602001604051908101604052809291908181526020016000905b8282101561080757838290600052602060002001805461077a90612b89565b80601f01602080910402602001604051908101604052809291908181526020018280546107a690612b89565b80156107f35780601f106107c8576101008083540402835291602001916107f3565b820191906000526020600020905b8154815290600101906020018083116107d657829003601f168201915b50505050508152602001906001019061075b565b50505050905090565b8273ffffffffffffffffffffffffffffffffffffffff163373ffffffffffffffffffffffffffffffffffffffff1614806108935750600660003373ffffffffffffffffffffffffffffffffffffffff1673ffffffffffffffffffffffffffffffffffffffff16815260200190815260200160002060009054906101000a900460ff165b6108d2576040517f08c379a00000000000000000000000000000000000000000000000000000000081526004016108c990612c06565b60405180910390fd5b8273ffffffffffffffffffffffffffffffffffffffff16600383836040516108fb929190612c56565b908152602001604051809103902060009054906101000a900473ffffffffffffffffffffffffffffffffffffffff1673ffffffffffffffffffffffffffffffffffffffff1614610980576040517f08c379a000000000000000000000000000000000000000000000000000000000815260040161097790612cbb565b60405180910390fd5b8181600560008673ffffffffffffffffffffffffffffffffffffffff1673ffffffffffffffffffffffffffffffffffffffff16815260200190815260200160002091826109ce929190612e92565b508273ffffffffffffffffffffffffffffffffffffffff167f85f5cf3dd23d0a027e189b964d6b01ca53edac4afe62f1f1c1eeaf824fe8fc638383604051610a17929190612f8f565b60405180910390a2505050565b600660003373ffffffffffffffffffffffffffffffffffffffff1673ffffffffffffffffffffffffffffffffffffffff16815260200190815260200160002060009054906101000a900460ff1680610aae5750610a7f6116a0565b73ffffffffffffffffffffffffffffffffffffffff163373ffffffffffffffffffffffffffffffffffffffff16145b610aed576040517f08c379a0000000000000000000000000000000000000000000000000000000008152600401610ae490612c06565b60405180910390fd5b600260008373ffffffffffffffffffffffffffffffffffffffff1673ffffffffffffffffffffffffffffffffffffffff16815260200190815260200160002060020160009054906101000a900460ff16610b7c576040517f08c379a0000000000000000000000000000000000000000000000000000000008152600401610b7390612fff565b60405180910390fd5b80600260008473ffffffffffffffffffffffffffffffffffffffff1673ffffffffffffffffffffffffffffffffffffffff1681526020019081526020016000206001016000828254610bce919061304e565b925050819055508173ffffffffffffffffffffffffffffffffffffffff167fdd40769a1a5abf6340f62fe017afbe44bf9a6da195e293098ce9e102af1f75b4600260008573ffffffffffffffffffffffffffffffffffffffff1673ffffffffffffffffffffffffffffffffffffffff168152602001908152602001600020600001600260008673ffffffffffffffffffffffffffffffffffffffff1673ffffffffffffffffffffffffffffffffffffffff16815260200190815260200160002060010154604051610ca0929190613106565b60405180910390a25050565b610cb4611f32565b6001600660008373ffffffffffffffffffffffffffffffffffffffff1673ffffffffffffffffffffffffffffffffffffffff16815260200190815260200160002060006101000a81548160ff02191690831515021790555050565b600660003373ffffffffffffffffffffffffffffffffffffffff1673ffffffffffffffffffffffffffffffffffffffff16815260200190815260200160002060009054906101000a900460ff1680610d995750610d6a6116a0565b73ffffffffffffffffffffffffffffffffffffffff163373ffffffffffffffffffffffffffffffffffffffff16145b610dd8576040517f08c379a0000000000000000000000000000000000000000000000000000000008152600401610dcf90612c06565b60405180910390fd5b81600385604051610de99190613167565b908152602001604051809103902060006101000a81548173ffffffffffffffffffffffffffffffffffffffff021916908373ffffffffffffffffffffffffffffffffffffffff1602179055506000600460008573ffffffffffffffffffffffffffffffffffffffff1673ffffffffffffffffffffffffffffffffffffffff168152602001908152602001600020905060005b8180549050811015610f64578580519060200120828281548110610ea257610ea161317e565b5b90600052602060002001604051610eb99190613250565b604051809103902003610f51578160018380549050610ed89190613267565b81548110610ee957610ee861317e565b5b90600052602060002001828281548110610f0657610f0561317e565b5b906000526020600020019081610f1c91906132c6565b5081805480610f2e57610f2d6133ae565b5b600190038181906000526020600020016000610f4a919061235e565b9055610f64565b8080610f5c906133dd565b915050610e7b565b50600460008473ffffffffffffffffffffffffffffffffffffffff1673ffffffffffffffffffffffffffffffffffffffff16815260200190815260200160002085908060018154018082558091505060019003906000526020600020016000909190919091509081610fd69190613425565b506000600260008673ffffffffffffffffffffffffffffffffffffffff1673ffffffffffffffffffffffffffffffffffffffff16815260200190815260200160002060020160006101000a81548160ff0219169083151502179055506000600260008673ffffffffffffffffffffffffffffffffffffffff1673ffffffffffffffffffffffffffffffffffffffff16815260200190815260200160002060020160016101000a81548160ff021916908315150217905550604051806080016040528086815260200183815260200160011515815260200160001515815250600260008573ffffffffffffffffffffffffffffffffffffffff1673ffffffffffffffffffffffffffffffffffffffff16815260200190815260200160002060008201518160000190816111089190613425565b506020820151816001015560408201518160020160006101000a81548160ff02191690831515021790555060608201518160020160016101000a81548160ff02191690831515021790555090505084600560008573ffffffffffffffffffffffffffffffffffffffff1673ffffffffffffffffffffffffffffffffffffffff16815260200190815260200160002090816111a29190613425565b505050505050565b81818080601f016020809104026020016040519081016040528093929190818152602001838380828437600081840152601f19601f82011690508083019250505050505050600381511015611234576040517f08c379a000000000000000000000000000000000000000000000000000000000815260040161122b90613543565b60405180910390fd5b601481511115611279576040517f08c379a0000000000000000000000000000000000000000000000000000000008152600401611270906135af565b60405180910390fd5b61128281611fb9565b6112c1576040517f08c379a00000000000000000000000000000000000000000000000000000000081526004016112b89061361b565b60405180910390fd5b600260003373ffffffffffffffffffffffffffffffffffffffff1673ffffffffffffffffffffffffffffffffffffffff16815260200190815260200160002060020160009054906101000a900460ff1615611351576040517f08c379a000000000000000000000000000000000000000000000000000000000815260040161134890613687565b60405180910390fd5b600073ffffffffffffffffffffffffffffffffffffffff166003848460405161137b929190612c56565b908152602001604051809103902060009054906101000a900473ffffffffffffffffffffffffffffffffffffffff1673ffffffffffffffffffffffffffffffffffffffff1614611400576040517f08c379a00000000000000000000000000000000000000000000000000000000081526004016113f7906136f3565b60405180910390fd5b604051806080016040528084848080601f016020809104026020016040519081016040528093929190818152602001838380828437600081840152601f19601f8201169050808301925050505050505081526020016000815260200160011515815260200160001515815250600260003373ffffffffffffffffffffffffffffffffffffffff1673ffffffffffffffffffffffffffffffffffffffff16815260200190815260200160002060008201518160000190816114c09190613425565b506020820151816001015560408201518160020160006101000a81548160ff02191690831515021790555060608201518160020160016101000a81548160ff0219169083151502179055509050503360038484604051611521929190612c56565b908152602001604051809103902060006101000a81548173ffffffffffffffffffffffffffffffffffffffff021916908373ffffffffffffffffffffffffffffffffffffffff160217905550600460003373ffffffffffffffffffffffffffffffffffffffff1673ffffffffffffffffffffffffffffffffffffffff1681526020019081526020016000208383909180600181540180825580915050600190039060005260206000200160009091929091929091929091925091826115e7929190612e92565b508282600560003373ffffffffffffffffffffffffffffffffffffffff1673ffffffffffffffffffffffffffffffffffffffff1681526020019081526020016000209182611636929190612e92565b503373ffffffffffffffffffffffffffffffffffffffff167f48cac28ad4dc618e15f4c2dd5e97751182f166de97b25618318b2112aa951a2f848460405161167f929190612f8f565b60405180910390a2505050565b611694611f32565b61169e60006120bd565b565b60008060009054906101000a900473ffffffffffffffffffffffffffffffffffffffff16905090565b60008373ffffffffffffffffffffffffffffffffffffffff16600384846040516116f4929190612c56565b908152602001604051809103902060009054906101000a900473ffffffffffffffffffffffffffffffffffffffff1673ffffffffffffffffffffffffffffffffffffffff161490509392505050565b600660003373ffffffffffffffffffffffffffffffffffffffff1673ffffffffffffffffffffffffffffffffffffffff16815260200190815260200160002060009054906101000a900460ff16806117cd575061179e6116a0565b73ffffffffffffffffffffffffffffffffffffffff163373ffffffffffffffffffffffffffffffffffffffff16145b61180c576040517f08c379a000000000000000000000000000000000000000000000000000000000815260040161180390612c06565b60405180910390fd5b600260008373ffffffffffffffffffffffffffffffffffffffff1673ffffffffffffffffffffffffffffffffffffffff16815260200190815260200160002060020160009054906101000a900460ff1661189b576040517f08c379a000000000000000000000000000000000000000000000000000000000815260040161189290612fff565b60405180910390fd5b80600260008473ffffffffffffffffffffffffffffffffffffffff1673ffffffffffffffffffffffffffffffffffffffff16815260200190815260200160002060020160016101000a81548160ff0219169083151502179055505050565b6060600560008373ffffffffffffffffffffffffffffffffffffffff1673ffffffffffffffffffffffffffffffffffffffff168152602001908152602001600020805461194590612b89565b80601f016020809104026020016040519081016040528092919081815260200182805461197190612b89565b80156119be5780601f10611993576101008083540402835291602001916119be565b820191906000526020600020905b8154815290600101906020018083116119a157829003601f168201915b50505050509050919050565b60606000806000806000600260008873ffffffffffffffffffffffffffffffffffffffff1673ffffffffffffffffffffffffffffffffffffffff168152602001908152602001600020604051806080016040529081600082018054611a2e90612b89565b80601f0160208091040260200160405190810160405280929190818152602001828054611a5a90612b89565b8015611aa75780601f10611a7c57610100808354040283529160200191611aa7565b820191906000526020600020905b815481529060010190602001808311611a8a57829003601f168201915b50505050508152602001600182015481526020016002820160009054906101000a900460ff161515151581526020016002820160019054906101000a900460ff161515151581525050905080600001518160200151826040015183606001516000955095509550955095505091939590929450565b60056020528060005260406000206000915090508054611b3b90612b89565b80601f0160208091040260200160405190810160405280929190818152602001828054611b6790612b89565b8015611bb45780601f10611b8957610100808354040283529160200191611bb4565b820191906000526020600020905b815481529060010190602001808311611b9757829003601f168201915b505050505081565b60046020528160005260406000208181548110611bd857600080fd5b90600052602060002001600091509150508054611bf490612b89565b80601f0160208091040260200160405190810160405280929190818152602001828054611c2090612b89565b8015611c6d5780601f10611c4257610100808354040283529160200191611c6d565b820191906000526020600020905b815481529060010190602001808311611c5057829003601f168201915b505050505081565b600060038383604051611c89929190612c56565b908152602001604051809103902060009054906101000a900473ffffffffffffffffffffffffffffffffffffffff16905092915050565b611cc8611f32565b6000600660008373ffffffffffffffffffffffffffffffffffffffff1673ffffffffffffffffffffffffffffffffffffffff16815260200190815260200160002060006101000a81548160ff02191690831515021790555050565b6060600260008373ffffffffffffffffffffffffffffffffffffffff1673ffffffffffffffffffffffffffffffffffffffff1681526020019081526020016000206000018054611d7290612b89565b80601f0160208091040260200160405190810160405280929190818152602001828054611d9e90612b89565b8015611deb5780601f10611dc057610100808354040283529160200191611deb565b820191906000526020600020905b815481529060010190602001808311611dce57829003601f168201915b50505050509050919050565b60066020528060005260406000206000915054906101000a900460ff1681565b6000600260008373ffffffffffffffffffffffffffffffffffffffff1673ffffffffffffffffffffffffffffffffffffffff168152602001908152602001600020600101549050919050565b611e6b611f32565b600073ffffffffffffffffffffffffffffffffffffffff168173ffffffffffffffffffffffffffffffffffffffff1603611edd5760006040517f1e4fbdf7000000000000000000000000000000000000000000000000000000008152600401611ed49190612a0e565b60405180910390fd5b611ee6816120bd565b50565b6003818051602081018201805184825260208301602085012081835280955050505050506000915054906101000a900473ffffffffffffffffffffffffffffffffffffffff1681565b611f3a612181565b73ffffffffffffffffffffffffffffffffffffffff16611f586116a0565b73ffffffffffffffffffffffffffffffffffffffff1614611fb757611f7b612181565b6040517f118cdaa7000000000000000000000000000000000000000000000000000000008152600401611fae9190612a0e565b60405180910390fd5b565b600080829050611fe681600081518110611fd657611fd561317e565b5b602001015160f81c60f81b612189565b611ff45760009150506120b8565b60005b81518110156120b15760008282815181106120155761201461317e565b5b602001015160f81c60f81b905061202b81612189565b15801561203e575061203c816122c1565b155b801561208c57507f5f00000000000000000000000000000000000000000000000000000000000000817effffffffffffffffffffffffffffffffffffffffffffffffffffffffffffff191614155b1561209d57600093505050506120b8565b5080806120a9906133dd565b915050611ff7565b5060019150505b919050565b60008060009054906101000a900473ffffffffffffffffffffffffffffffffffffffff169050816000806101000a81548173ffffffffffffffffffffffffffffffffffffffff021916908373ffffffffffffffffffffffffffffffffffffffff1602179055508173ffffffffffffffffffffffffffffffffffffffff168173ffffffffffffffffffffffffffffffffffffffff167f8be0079c531659141344cd1fd0a4f28419497f9722a3daafe3b4186f6b6457e060405160405180910390a35050565b600033905090565b60007f6100000000000000000000000000000000000000000000000000000000000000827effffffffffffffffffffffffffffffffffffffffffffffffffffffffffffff19161015801561221f57507f7a00000000000000000000000000000000000000000000000000000000000000827effffffffffffffffffffffffffffffffffffffffffffffffffffffffffffff191611155b806122ba57507f4100000000000000000000000000000000000000000000000000000000000000827effffffffffffffffffffffffffffffffffffffffffffffffffffffffffffff1916101580156122b957507f5a00000000000000000000000000000000000000000000000000000000000000827effffffffffffffffffffffffffffffffffffffffffffffffffffffffffffff191611155b5b9050919050565b60007f3000000000000000000000000000000000000000000000000000000000000000827effffffffffffffffffffffffffffffffffffffffffffffffffffffffffffff19161015801561235757507f3900000000000000000000000000000000000000000000000000000000000000827effffffffffffffffffffffffffffffffffffffffffffffffffffffffffffff191611155b9050919050565b50805461236a90612b89565b6000825580601f1061237c575061239b565b601f01602090049060005260206000209081019061239a919061239e565b5b50565b5b808211156123b757600081600090555060010161239f565b5090565b6000604051905090565b600080fd5b600080fd5b600073ffffffffffffffffffffffffffffffffffffffff82169050919050565b60006123fa826123cf565b9050919050565b61240a816123ef565b811461241557600080fd5b50565b60008135905061242781612401565b92915050565b600060208284031215612443576124426123c5565b5b600061245184828501612418565b91505092915050565b60008115159050919050565b61246f8161245a565b82525050565b600060208201905061248a6000830184612466565b92915050565b6000819050919050565b6124a381612490565b82525050565b60006020820190506124be600083018461249a565b92915050565b600081519050919050565b600082825260208201905092915050565b60005b838110156124fe5780820151818401526020810190506124e3565b60008484015250505050565b6000601f19601f8301169050919050565b6000612526826124c4565b61253081856124cf565b93506125408185602086016124e0565b6125498161250a565b840191505092915050565b6000608082019050818103600083015261256e818761251b565b905061257d602083018661249a565b61258a6040830185612466565b6125976060830184612466565b95945050505050565b600081519050919050565b600082825260208201905092915050565b6000819050602082019050919050565b600082825260208201905092915050565b60006125e8826124c4565b6125f281856125cc565b93506126028185602086016124e0565b61260b8161250a565b840191505092915050565b600061262283836125dd565b905092915050565b6000602082019050919050565b6000612642826125a0565b61264c81856125ab565b93508360208202850161265e856125bc565b8060005b8581101561269a578484038952815161267b8582612616565b94506126868361262a565b925060208a01995050600181019050612662565b50829750879550505050505092915050565b600060208201905081810360008301526126c68184612637565b905092915050565b600080fd5b600080fd5b600080fd5b60008083601f8401126126f3576126f26126ce565b5b8235905067ffffffffffffffff8111156127105761270f6126d3565b5b60208301915083600182028301111561272c5761272b6126d8565b5b9250929050565b60008060006040848603121561274c5761274b6123c5565b5b600061275a86828701612418565b935050602084013567ffffffffffffffff81111561277b5761277a6123ca565b5b612787868287016126dd565b92509250509250925092565b61279c81612490565b81146127a757600080fd5b50565b6000813590506127b981612793565b92915050565b600080604083850312156127d6576127d56123c5565b5b60006127e485828601612418565b92505060206127f5858286016127aa565b9150509250929050565b600080fd5b7f4e487b7100000000000000000000000000000000000000000000000000000000600052604160045260246000fd5b61283c8261250a565b810181811067ffffffffffffffff8211171561285b5761285a612804565b5b80604052505050565b600061286e6123bb565b905061287a8282612833565b919050565b600067ffffffffffffffff82111561289a57612899612804565b5b6128a38261250a565b9050602081019050919050565b82818337600083830152505050565b60006128d26128cd8461287f565b612864565b9050828152602081018484840111156128ee576128ed6127ff565b5b6128f98482856128b0565b509392505050565b600082601f830112612916576129156126ce565b5b81356129268482602086016128bf565b91505092915050565b60008060008060808587031215612949576129486123c5565b5b600085013567ffffffffffffffff811115612967576129666123ca565b5b61297387828801612901565b945050602061298487828801612418565b935050604061299587828801612418565b92505060606129a6878288016127aa565b91505092959194509250565b600080602083850312156129c9576129c86123c5565b5b600083013567ffffffffffffffff8111156129e7576129e66123ca565b5b6129f3858286016126dd565b92509250509250929050565b612a08816123ef565b82525050565b6000602082019050612a2360008301846129ff565b92915050565b612a328161245a565b8114612a3d57600080fd5b50565b600081359050612a4f81612a29565b92915050565b60008060408385031215612a6c57612a6b6123c5565b5b6000612a7a85828601612418565b9250506020612a8b85828601612a40565b9150509250929050565b60006020820190508181036000830152612aaf818461251b565b905092915050565b600060a0820190508181036000830152612ad1818861251b565b9050612ae0602083018761249a565b612aed6040830186612466565b612afa6060830185612466565b612b076080830184612466565b9695505050505050565b600060208284031215612b2757612b266123c5565b5b600082013567ffffffffffffffff811115612b4557612b446123ca565b5b612b5184828501612901565b91505092915050565b7f4e487b7100000000000000000000000000000000000000000000000000000000600052602260045260246000fd5b60006002820490506001821680612ba157607f821691505b602082108103612bb457612bb3612b5a565b5b50919050565b7f4e6f7420617574686f72697a6564000000000000000000000000000000000000600082015250565b6000612bf0600e836124cf565b9150612bfb82612bba565b602082019050919050565b60006020820190508181036000830152612c1f81612be3565b9050919050565b600081905092915050565b6000612c3d8385612c26565b9350612c4a8385846128b0565b82840190509392505050565b6000612c63828486612c31565b91508190509392505050565b7f446f6e2774206f776e207468697320757365726e616d65000000000000000000600082015250565b6000612ca56017836124cf565b9150612cb082612c6f565b602082019050919050565b60006020820190508181036000830152612cd481612c98565b9050919050565b600082905092915050565b60008190508160005260206000209050919050565b60006020601f8301049050919050565b600082821b905092915050565b600060088302612d487fffffffffffffffffffffffffffffffffffffffffffffffffffffffffffffffff82612d0b565b612d528683612d0b565b95508019841693508086168417925050509392505050565b6000819050919050565b6000612d8f612d8a612d8584612490565b612d6a565b612490565b9050919050565b6000819050919050565b612da983612d74565b612dbd612db582612d96565b848454612d18565b825550505050565b600090565b612dd2612dc5565b612ddd818484612da0565b505050565b5b81811015612e0157612df6600082612dca565b600181019050612de3565b5050565b601f821115612e4657612e1781612ce6565b612e2084612cfb565b81016020851015612e2f578190505b612e43612e3b85612cfb565b830182612de2565b50505b505050565b600082821c905092915050565b6000612e6960001984600802612e4b565b1980831691505092915050565b6000612e828383612e58565b9150826002028217905092915050565b612e9c8383612cdb565b67ffffffffffffffff811115612eb557612eb4612804565b5b612ebf8254612b89565b612eca828285612e05565b6000601f831160018114612ef95760008415612ee7578287013590505b612ef18582612e76565b865550612f59565b601f198416612f0786612ce6565b60005b82811015612f2f57848901358255600182019150602085019450602081019050612f0a565b86831015612f4c5784890135612f48601f891682612e58565b8355505b6001600288020188555050505b50505050505050565b6000612f6e83856124cf565b9350612f7b8385846128b0565b612f848361250a565b840190509392505050565b60006020820190508181036000830152612faa818486612f62565b90509392505050565b7f55736572206e6f74207265676973746572656400000000000000000000000000600082015250565b6000612fe96013836124cf565b9150612ff482612fb3565b602082019050919050565b6000602082019050818103600083015261301881612fdc565b9050919050565b7f4e487b7100000000000000000000000000000000000000000000000000000000600052601160045260246000fd5b600061305982612490565b915061306483612490565b925082820190508082111561307c5761307b61301f565b5b92915050565b6000815461308f81612b89565b61309981866124cf565b945060018216600081146130b457600181146130ca576130fd565b60ff1983168652811515602002860193506130fd565b6130d385612ce6565b60005b838110156130f5578154818901526001820191506020810190506130d6565b808801955050505b50505092915050565b600060408201905081810360008301526131208185613082565b905061312f602083018461249a565b9392505050565b6000613141826124c4565b61314b8185612c26565b935061315b8185602086016124e0565b80840191505092915050565b60006131738284613136565b915081905092915050565b7f4e487b7100000000000000000000000000000000000000000000000000000000600052603260045260246000fd5b600081905092915050565b60008190508160005260206000209050919050565b600081546131da81612b89565b6131e481866131ad565b945060018216600081146131ff576001811461321457613247565b60ff1983168652811515820286019350613247565b61321d856131b8565b60005b8381101561323f57815481890152600182019150602081019050613220565b838801955050505b50505092915050565b600061325c82846131cd565b915081905092915050565b600061327282612490565b915061327d83612490565b92508282039050818111156132955761329461301f565b5b92915050565b6000815490506132aa81612b89565b9050919050565b60008190508160005260206000209050919050565b8181036132d45750506133ac565b6132dd8261329b565b67ffffffffffffffff8111156132f6576132f5612804565b5b6133008254612b89565b61330b828285612e05565b6000601f83116001811461333a5760008415613328578287015490505b6133328582612e76565b8655506133a5565b601f198416613348876132b1565b965061335386612ce6565b60005b8281101561337b57848901548255600182019150600185019450602081019050613356565b868310156133985784890154613394601f891682612e58565b8355505b6001600288020188555050505b5050505050505b565b7f4e487b7100000000000000000000000000000000000000000000000000000000600052603160045260246000fd5b60006133e882612490565b91507fffffffffffffffffffffffffffffffffffffffffffffffffffffffffffffffff820361341a5761341961301f565b5b600182019050919050565b61342e826124c4565b67ffffffffffffffff81111561344757613446612804565b5b6134518254612b89565b61345c828285612e05565b600060209050601f83116001811461348f576000841561347d578287015190505b6134878582612e76565b8655506134ef565b601f19841661349d86612ce6565b60005b828110156134c5578489015182556001820191506020850194506020810190506134a0565b868310156134e257848901516134de601f891682612e58565b8355505b6001600288020188555050505b505050505050565b7f557365726e616d6520746f6f2073686f72740000000000000000000000000000600082015250565b600061352d6012836124cf565b9150613538826134f7565b602082019050919050565b6000602082019050818103600083015261355c81613520565b9050919050565b7f557365726e616d6520746f6f206c6f6e67000000000000000000000000000000600082015250565b60006135996011836124cf565b91506135a482613563565b602082019050919050565b600060208201905081810360008301526135c88161358c565b9050919050565b7f496e76616c696420757365726e616d6520666f726d6174000000000000000000600082015250565b60006136056017836124cf565b9150613610826135cf565b602082019050919050565b60006020820190508181036000830152613634816135f8565b9050919050565b7f5573657220616c72656164792072656769737465726564000000000000000000600082015250565b60006136716017836124cf565b915061367c8261363b565b602082019050919050565b600060208201905081810360008301526136a081613664565b9050919050565b7f557365726e616d6520616c72656164792074616b656e00000000000000000000600082015250565b60006136dd6016836124cf565b91506136e8826136a7565b602082019050919050565b6000602082019050818103600083015261370c816136d0565b905091905056fea2646970667358221220abf56f58362dd52643451609a01b54a5d57d551227553b9d2290b89693083e1664736f6c63430008140033",
  "linkReferences": {},
  "deployedLinkReferences": {}
}