{
  "_format": "hh-sol-artifact-1",
  "contractName": "MatchManager",
  "sourceName": "contracts/MatchManager.sol",
  "abi": [
    {
      "inputs": [
        {
          "internalType": "address",
          "name": "initialOwner",
          "type": "address"
        },
        {
          "internalType": "address",
          "name": "_userManager",
          "type": "address"
        }
      ],
      "stateMutability": "nonpayable",
      "type": "constructor"
    },
    {
      "inputs": [
        {
          "internalType": "address",
          "name": "owner",
          "type": "address"
        }
      ],
      "name": "OwnableInvalidOwner",
      "type": "error"
    },
    {
      "inputs": [
        {
          "internalType": "address",
          "name": "account",
          "type": "address"
        }
      ],
      "name": "OwnableUnauthorizedAccount",
      "type": "error"
    },
    {
      "anonymous": false,
      "inputs": [
        {
          "indexed": true,
          "internalType": "bytes32",
          "name": "matchId",
          "type": "bytes32"
        },
        {
          "indexed": true,
          "internalType": "address",
          "name": "winner",
          "type": "address"
        },
        {
          "indexed": true,
          "internalType": "address",
          "name": "loser",
          "type": "address"
        },
        {
          "indexed": false,
          "internalType": "uint256",
          "name": "winnings",
          "type": "uint256"
        }
      ],
      "name": "MatchEnded",
      "type": "event"
    },
    {
      "anonymous": false,
      "inputs": [
        {
          "indexed": true,
          "internalType": "address",
          "name": "player1",
          "type": "address"
        },
        {
          "indexed": true,
          "internalType": "address",
          "name": "player2",
          "type": "address"
        },
        {
          "indexed": false,
          "internalType": "uint256",
          "name": "stakeAmount",
          "type": "uint256"
        }
      ],
      "name": "MatchInitiated",
      "type": "event"
    },
    {
      "anonymous": false,
      "inputs": [
        {
          "indexed": true,
          "internalType": "bytes32",
          "name": "matchId",
          "type": "bytes32"
        },
        {
          "indexed": true,
          "internalType": "address",
          "name": "player1",
          "type": "address"
        },
        {
          "indexed": true,
          "internalType": "address",
          "name": "player2",
          "type": "address"
        },
        {
          "indexed": false,
          "internalType": "uint256",
          "name": "stakeAmount",
          "type": "uint256"
        }
      ],
      "name": "MatchStarted",
      "type": "event"
    },
    {
      "anonymous": false,
      "inputs": [
        {
          "indexed": true,
          "internalType": "address",
          "name": "previousOwner",
          "type": "address"
        },
        {
          "indexed": true,
          "internalType": "address",
          "name": "newOwner",
          "type": "address"
        }
      ],
      "name": "OwnershipTransferred",
      "type": "event"
    },
    {
      "inputs": [],
      "name": "MIN_STAKE_AMOUNT",
      "outputs": [
        {
          "internalType": "uint256",
          "name": "",
          "type": "uint256"
        }
      ],
      "stateMutability": "view",
      "type": "function"
    },
    {
      "inputs": [],
      "name": "XP_PER_WIN",
      "outputs": [
        {
          "internalType": "uint256",
          "name": "",
          "type": "uint256"
        }
      ],
      "stateMutability": "view",
      "type": "function"
    },
    {
      "inputs": [
        {
          "internalType": "address",
          "name": "player1",
          "type": "address"
        }
      ],
      "name": "acceptMatch",
      "outputs": [],
      "stateMutability": "payable",
      "type": "function"
    },
    {
      "inputs": [
        {
          "internalType": "bytes32",
          "name": "",
          "type": "bytes32"
        }
      ],
      "name": "activeMatches",
      "outputs": [
        {
          "internalType": "address",
          "name": "player1",
          "type": "address"
        },
        {
          "internalType": "address",
          "name": "player2",
          "type": "address"
        },
        {
          "internalType": "uint256",
          "name": "stakeAmount",
          "type": "uint256"
        },
        {
          "internalType": "bool",
          "name": "active",
          "type": "bool"
        }
      ],
      "stateMutability": "view",
      "type": "function"
    },
    {
      "inputs": [
        {
          "internalType": "address",
          "name": "player1",
          "type": "address"
        },
        {
          "internalType": "address",
          "name": "player2",
          "type": "address"
        }
      ],
      "name": "getMatchId",
      "outputs": [
        {
          "internalType": "bytes32",
          "name": "",
          "type": "bytes32"
        }
      ],
      "stateMutability": "view",
      "type": "function"
    },
    {
      "inputs": [
        {
          "internalType": "address",
          "name": "",
          "type": "address"
        }
      ],
      "name": "inMatch",
      "outputs": [
        {
          "internalType": "bool",
          "name": "",
          "type": "bool"
        }
      ],
      "stateMutability": "view",
      "type": "function"
    },
    {
      "inputs": [
        {
          "internalType": "address",
          "name": "opponent",
          "type": "address"
        }
      ],
      "name": "initiateMatch",
      "outputs": [],
      "stateMutability": "payable",
      "type": "function"
    },
    {
      "inputs": [
        {
          "internalType": "address",
          "name": "player",
          "type": "address"
        }
      ],
      "name": "isInMatch",
      "outputs": [
        {
          "internalType": "bool",
          "name": "",
          "type": "bool"
        }
      ],
      "stateMutability": "view",
      "type": "function"
    },
    {
      "inputs": [],
      "name": "owner",
      "outputs": [
        {
          "internalType": "address",
          "name": "",
          "type": "address"
        }
      ],
      "stateMutability": "view",
      "type": "function"
    },
    {
      "inputs": [
        {
          "internalType": "bytes32",
          "name": "",
          "type": "bytes32"
        }
      ],
      "name": "pendingMatches",
      "outputs": [
        {
          "internalType": "address",
          "name": "player1",
          "type": "address"
        },
        {
          "internalType": "address",
          "name": "player2",
          "type": "address"
        },
        {
          "internalType": "uint256",
          "name": "stakeAmount",
          "type": "uint256"
        },
        {
          "internalType": "bool",
          "name": "exists",
          "type": "bool"
        }
      ],
      "stateMutability": "view",
      "type": "function"
    },
    {
      "inputs": [],
      "name": "renounceOwnership",
      "outputs": [],
      "stateMutability": "nonpayable",
      "type": "function"
    },
    {
      "inputs": [
        {
          "internalType": "address",
          "name": "",
          "type": "address"
        }
      ],
      "name": "stakedAmounts",
      "outputs": [
        {
          "internalType": "uint256",
          "name": "",
          "type": "uint256"
        }
      ],
      "stateMutability": "view",
      "type": "function"
    },
    {
      "inputs": [
        {
          "internalType": "bytes32",
          "name": "matchId",
          "type": "bytes32"
        },
        {
          "internalType": "address",
          "name": "winner",
          "type": "address"
        }
      ],
      "name": "submitWinner",
      "outputs": [],
      "stateMutability": "nonpayable",
      "type": "function"
    },
    {
      "inputs": [
        {
          "internalType": "address",
          "name": "newOwner",
          "type": "address"
        }
      ],
      "name": "transferOwnership",
      "outputs": [],
      "stateMutability": "nonpayable",
      "type": "function"
    },
    {
      "inputs": [],
      "name": "userManager",
      "outputs": [
        {
          "internalType": "contract IUserManager",
          "name": "",
          "type": "address"
        }
      ],
      "stateMutability": "view",
      "type": "function"
    }
  ],
  "bytecode": "0x60806040523480156200001157600080fd5b5060405162002b5838038062002b5883398181016040528101906200003791906200023d565b81600073ffffffffffffffffffffffffffffffffffffffff168173ffffffffffffffffffffffffffffffffffffffff1603620000ad5760006040517f1e4fbdf7000000000000000000000000000000000000000000000000000000008152600401620000a4919062000295565b60405180910390fd5b620000be816200010f60201b60201c565b506001808190555080600660006101000a81548173ffffffffffffffffffffffffffffffffffffffff021916908373ffffffffffffffffffffffffffffffffffffffff1602179055505050620002b2565b60008060009054906101000a900473ffffffffffffffffffffffffffffffffffffffff169050816000806101000a81548173ffffffffffffffffffffffffffffffffffffffff021916908373ffffffffffffffffffffffffffffffffffffffff1602179055508173ffffffffffffffffffffffffffffffffffffffff168173ffffffffffffffffffffffffffffffffffffffff167f8be0079c531659141344cd1fd0a4f28419497f9722a3daafe3b4186f6b6457e060405160405180910390a35050565b600080fd5b600073ffffffffffffffffffffffffffffffffffffffff82169050919050565b60006200020582620001d8565b9050919050565b6200021781620001f8565b81146200022357600080fd5b50565b60008151905062000237816200020c565b92915050565b60008060408385031215620002575762000256620001d3565b5b6000620002678582860162000226565b92505060206200027a8582860162000226565b9150509250929050565b6200028f81620001f8565b82525050565b6000602082019050620002ac600083018462000284565b92915050565b61289680620002c26000396000f3fe6080604052600436106100e85760003560e01c8063715018a61161008a578063a8a3ca5c11610059578063a8a3ca5c14610310578063d004ba4d1461034d578063e01061ea14610369578063f2fde38b14610385576100e8565b8063715018a6146102665780638da5cb5b1461027d5780638fb99a01146102a8578063a3f76fa7146102d3576100e8565b806327ed7188116100c657806327ed71881461019357806357e6f966146101be5780635c8a7687146101fb57806365dec15e14610226576100e8565b806305d132f3146100ed57806310c1c103146101165780631f69a2bd14610153575b600080fd5b3480156100f957600080fd5b50610114600480360381019061010f9190611d2d565b6103ae565b005b34801561012257600080fd5b5061013d60048036038101906101389190611d6d565b610a4f565b60405161014a9190611db3565b60405180910390f35b34801561015f57600080fd5b5061017a60048036038101906101759190611dce565b610a67565b60405161018a9493929190611e25565b60405180910390f35b34801561019f57600080fd5b506101a8610ae4565b6040516101b59190611db3565b60405180910390f35b3480156101ca57600080fd5b506101e560048036038101906101e09190611e6a565b610aef565b6040516101f29190611eb9565b60405180910390f35b34801561020757600080fd5b50610210610b22565b60405161021d9190611f33565b60405180910390f35b34801561023257600080fd5b5061024d60048036038101906102489190611dce565b610b48565b60405161025d9493929190611e25565b60405180910390f35b34801561027257600080fd5b5061027b610bc5565b005b34801561028957600080fd5b50610292610bd9565b60405161029f9190611f4e565b60405180910390f35b3480156102b457600080fd5b506102bd610c02565b6040516102ca9190611db3565b60405180910390f35b3480156102df57600080fd5b506102fa60048036038101906102f59190611d6d565b610c07565b6040516103079190611f69565b60405180910390f35b34801561031c57600080fd5b5061033760048036038101906103329190611d6d565b610c27565b6040516103449190611f69565b60405180910390f35b61036760048036038101906103629190611d6d565b610c7d565b005b610383600480360381019061037e9190611d6d565b6112ee565b005b34801561039157600080fd5b506103ac60048036038101906103a79190611d6d565b611a63565b005b6103b6611ae9565b60006003600084815260200190815260200160002090508060030160009054906101000a900460ff1661041e576040517f08c379a000000000000000000000000000000000000000000000000000000000815260040161041590611fe1565b60405180910390fd5b8060000160009054906101000a900473ffffffffffffffffffffffffffffffffffffffff1673ffffffffffffffffffffffffffffffffffffffff168273ffffffffffffffffffffffffffffffffffffffff1614806104cb57508060010160009054906101000a900473ffffffffffffffffffffffffffffffffffffffff1673ffffffffffffffffffffffffffffffffffffffff168273ffffffffffffffffffffffffffffffffffffffff16145b61050a576040517f08c379a00000000000000000000000000000000000000000000000000000000081526004016105019061204d565b60405180910390fd5b8060000160009054906101000a900473ffffffffffffffffffffffffffffffffffffffff1673ffffffffffffffffffffffffffffffffffffffff163373ffffffffffffffffffffffffffffffffffffffff1614806105b757508060010160009054906101000a900473ffffffffffffffffffffffffffffffffffffffff1673ffffffffffffffffffffffffffffffffffffffff163373ffffffffffffffffffffffffffffffffffffffff16145b6105f6576040517f08c379a00000000000000000000000000000000000000000000000000000000081526004016105ed906120b9565b60405180910390fd5b60008160000160009054906101000a900473ffffffffffffffffffffffffffffffffffffffff1673ffffffffffffffffffffffffffffffffffffffff168373ffffffffffffffffffffffffffffffffffffffff1614610679578160000160009054906101000a900473ffffffffffffffffffffffffffffffffffffffff1661069f565b8160010160009054906101000a900473ffffffffffffffffffffffffffffffffffffffff165b90506000600283600201546106b49190612108565b905060008360030160006101000a81548160ff0219169083151502179055506000600560008560000160009054906101000a900473ffffffffffffffffffffffffffffffffffffffff1673ffffffffffffffffffffffffffffffffffffffff1673ffffffffffffffffffffffffffffffffffffffff16815260200190815260200160002060006101000a81548160ff0219169083151502179055506000600560008560010160009054906101000a900473ffffffffffffffffffffffffffffffffffffffff1673ffffffffffffffffffffffffffffffffffffffff1673ffffffffffffffffffffffffffffffffffffffff16815260200190815260200160002060006101000a81548160ff0219169083151502179055506000600460008560000160009054906101000a900473ffffffffffffffffffffffffffffffffffffffff1673ffffffffffffffffffffffffffffffffffffffff1673ffffffffffffffffffffffffffffffffffffffff168152602001908152602001600020819055506000600460008560010160009054906101000a900473ffffffffffffffffffffffffffffffffffffffff1673ffffffffffffffffffffffffffffffffffffffff1673ffffffffffffffffffffffffffffffffffffffff16815260200190815260200160002081905550600660009054906101000a900473ffffffffffffffffffffffffffffffffffffffff1673ffffffffffffffffffffffffffffffffffffffff1663415d39618560646040518363ffffffff1660e01b81526004016108fb92919061214a565b600060405180830381600087803b15801561091557600080fd5b505af1158015610929573d6000803e3d6000fd5b5050505060008473ffffffffffffffffffffffffffffffffffffffff1682604051610953906121a4565b60006040518083038185875af1925050503d8060008114610990576040519150601f19603f3d011682016040523d82523d6000602084013e610995565b606091505b50509050806109d9576040517f08c379a00000000000000000000000000000000000000000000000000000000081526004016109d090612205565b60405180910390fd5b8273ffffffffffffffffffffffffffffffffffffffff168573ffffffffffffffffffffffffffffffffffffffff16877fa47cae35264b40ff79160dea7ca67f020e5ea7e339625e249edec1cdf27b802e85604051610a379190611db3565b60405180910390a450505050610a4b611b38565b5050565b60046020528060005260406000206000915090505481565b60026020528060005260406000206000915090508060000160009054906101000a900473ffffffffffffffffffffffffffffffffffffffff16908060010160009054906101000a900473ffffffffffffffffffffffffffffffffffffffff16908060020154908060030160009054906101000a900460ff16905084565b66038d7ea4c6800081565b60008282604051602001610b0492919061226d565b60405160208183030381529060405280519060200120905092915050565b600660009054906101000a900473ffffffffffffffffffffffffffffffffffffffff1681565b60036020528060005260406000206000915090508060000160009054906101000a900473ffffffffffffffffffffffffffffffffffffffff16908060010160009054906101000a900473ffffffffffffffffffffffffffffffffffffffff16908060020154908060030160009054906101000a900460ff16905084565b610bcd611b41565b610bd76000611bc8565b565b60008060009054906101000a900473ffffffffffffffffffffffffffffffffffffffff16905090565b606481565b60056020528060005260406000206000915054906101000a900460ff1681565b6000600560008373ffffffffffffffffffffffffffffffffffffffff1673ffffffffffffffffffffffffffffffffffffffff16815260200190815260200160002060009054906101000a900460ff169050919050565b610c85611ae9565b600660009054906101000a900473ffffffffffffffffffffffffffffffffffffffff1673ffffffffffffffffffffffffffffffffffffffff16630e666e49336040518263ffffffff1660e01b8152600401610ce09190611f4e565b602060405180830381865afa158015610cfd573d6000803e3d6000fd5b505050506040513d601f19601f82011682018060405250810190610d2191906122c5565b610d60576040517f08c379a0000000000000000000000000000000000000000000000000000000008152600401610d579061233e565b60405180910390fd5b600560003373ffffffffffffffffffffffffffffffffffffffff1673ffffffffffffffffffffffffffffffffffffffff16815260200190815260200160002060009054906101000a900460ff1615610ded576040517f08c379a0000000000000000000000000000000000000000000000000000000008152600401610de4906123aa565b60405180910390fd5b60008133604051602001610e0292919061226d565b60405160208183030381529060405280519060200120905060006002600083815260200190815260200160002090508060030160009054906101000a900460ff16610e82576040517f08c379a0000000000000000000000000000000000000000000000000000000008152600401610e7990612416565b60405180910390fd5b8273ffffffffffffffffffffffffffffffffffffffff168160000160009054906101000a900473ffffffffffffffffffffffffffffffffffffffff1673ffffffffffffffffffffffffffffffffffffffff16148015610f3057503373ffffffffffffffffffffffffffffffffffffffff168160010160009054906101000a900473ffffffffffffffffffffffffffffffffffffffff1673ffffffffffffffffffffffffffffffffffffffff16145b610f6f576040517f08c379a0000000000000000000000000000000000000000000000000000000008152600401610f6690612482565b60405180910390fd5b80600201543414610fb5576040517f08c379a0000000000000000000000000000000000000000000000000000000008152600401610fac906124ee565b60405180910390fd5b6000833342604051602001610fcc9392919061252f565b60405160208183030381529060405280519060200120905060405180608001604052808573ffffffffffffffffffffffffffffffffffffffff1681526020013373ffffffffffffffffffffffffffffffffffffffff16815260200183600201548152602001600115158152506003600083815260200190815260200160002060008201518160000160006101000a81548173ffffffffffffffffffffffffffffffffffffffff021916908373ffffffffffffffffffffffffffffffffffffffff16021790555060208201518160010160006101000a81548173ffffffffffffffffffffffffffffffffffffffff021916908373ffffffffffffffffffffffffffffffffffffffff1602179055506040820151816002015560608201518160030160006101000a81548160ff0219169083151502179055509050506001600560008673ffffffffffffffffffffffffffffffffffffffff1673ffffffffffffffffffffffffffffffffffffffff16815260200190815260200160002060006101000a81548160ff0219169083151502179055506001600560003373ffffffffffffffffffffffffffffffffffffffff1673ffffffffffffffffffffffffffffffffffffffff16815260200190815260200160002060006101000a81548160ff02191690831515021790555034600460003373ffffffffffffffffffffffffffffffffffffffff1673ffffffffffffffffffffffffffffffffffffffff1681526020019081526020016000208190555060026000848152602001908152602001600020600080820160006101000a81549073ffffffffffffffffffffffffffffffffffffffff02191690556001820160006101000a81549073ffffffffffffffffffffffffffffffffffffffff021916905560028201600090556003820160006101000a81549060ff021916905550503373ffffffffffffffffffffffffffffffffffffffff168473ffffffffffffffffffffffffffffffffffffffff16827f14413ee4b6604879e825cf5c24918951f8c7fdd6de55f71d7b9feb903b3fdf46346040516112d89190611db3565b60405180910390a45050506112eb611b38565b50565b6112f6611ae9565b600660009054906101000a900473ffffffffffffffffffffffffffffffffffffffff1673ffffffffffffffffffffffffffffffffffffffff16630e666e49336040518263ffffffff1660e01b81526004016113519190611f4e565b602060405180830381865afa15801561136e573d6000803e3d6000fd5b505050506040513d601f19601f8201168201806040525081019061139291906122c5565b6113d1576040517f08c379a00000000000000000000000000000000000000000000000000000000081526004016113c89061233e565b60405180910390fd5b600560003373ffffffffffffffffffffffffffffffffffffffff1673ffffffffffffffffffffffffffffffffffffffff16815260200190815260200160002060009054906101000a900460ff161561145e576040517f08c379a0000000000000000000000000000000000000000000000000000000008152600401611455906123aa565b60405180910390fd5b3373ffffffffffffffffffffffffffffffffffffffff168173ffffffffffffffffffffffffffffffffffffffff16036114cc576040517f08c379a00000000000000000000000000000000000000000000000000000000081526004016114c3906125b8565b60405180910390fd5b600660009054906101000a900473ffffffffffffffffffffffffffffffffffffffff1673ffffffffffffffffffffffffffffffffffffffff16630e666e49826040518263ffffffff1660e01b81526004016115279190611f4e565b602060405180830381865afa158015611544573d6000803e3d6000fd5b505050506040513d601f19601f8201168201806040525081019061156891906122c5565b6115a7576040517f08c379a000000000000000000000000000000000000000000000000000000000815260040161159e90612624565b60405180910390fd5b600660009054906101000a900473ffffffffffffffffffffffffffffffffffffffff1673ffffffffffffffffffffffffffffffffffffffff1663091c18aa336040518263ffffffff1660e01b81526004016116029190611f4e565b602060405180830381865afa15801561161f573d6000803e3d6000fd5b505050506040513d601f19601f8201168201806040525081019061164391906122c5565b1580156116e95750600660009054906101000a900473ffffffffffffffffffffffffffffffffffffffff1673ffffffffffffffffffffffffffffffffffffffff1663091c18aa826040518263ffffffff1660e01b81526004016116a69190611f4e565b602060405180830381865afa1580156116c3573d6000803e3d6000fd5b505050506040513d601f19601f820116820180604052508101906116e791906122c5565b155b611728576040517f08c379a000000000000000000000000000000000000000000000000000000000815260040161171f90612690565b60405180910390fd5b600560008273ffffffffffffffffffffffffffffffffffffffff1673ffffffffffffffffffffffffffffffffffffffff16815260200190815260200160002060009054906101000a900460ff16156117b5576040517f08c379a00000000000000000000000000000000000000000000000000000000081526004016117ac906126fc565b60405180910390fd5b66038d7ea4c680003410156117ff576040517f08c379a00000000000000000000000000000000000000000000000000000000081526004016117f690612768565b60405180910390fd5b6000338260405160200161181492919061226d565b6040516020818303038152906040528051906020012090506002600082815260200190815260200160002060030160009054906101000a900460ff1615611890576040517f08c379a0000000000000000000000000000000000000000000000000000000008152600401611887906127d4565b60405180910390fd5b34600460003373ffffffffffffffffffffffffffffffffffffffff1673ffffffffffffffffffffffffffffffffffffffff1681526020019081526020016000208190555060405180608001604052803373ffffffffffffffffffffffffffffffffffffffff1681526020018373ffffffffffffffffffffffffffffffffffffffff168152602001348152602001600115158152506002600083815260200190815260200160002060008201518160000160006101000a81548173ffffffffffffffffffffffffffffffffffffffff021916908373ffffffffffffffffffffffffffffffffffffffff16021790555060208201518160010160006101000a81548173ffffffffffffffffffffffffffffffffffffffff021916908373ffffffffffffffffffffffffffffffffffffffff1602179055506040820151816002015560608201518160030160006101000a81548160ff0219169083151502179055509050508173ffffffffffffffffffffffffffffffffffffffff163373ffffffffffffffffffffffffffffffffffffffff167fff3bce49c7c20e299400ce1336f3007156d00bdb59597baaa7ccee3daddd6a5934604051611a4f9190611db3565b60405180910390a350611a60611b38565b50565b611a6b611b41565b600073ffffffffffffffffffffffffffffffffffffffff168173ffffffffffffffffffffffffffffffffffffffff1603611add5760006040517f1e4fbdf7000000000000000000000000000000000000000000000000000000008152600401611ad49190611f4e565b60405180910390fd5b611ae681611bc8565b50565b600260015403611b2e576040517f08c379a0000000000000000000000000000000000000000000000000000000008152600401611b2590612840565b60405180910390fd5b6002600181905550565b60018081905550565b611b49611c8c565b73ffffffffffffffffffffffffffffffffffffffff16611b67610bd9565b73ffffffffffffffffffffffffffffffffffffffff1614611bc657611b8a611c8c565b6040517f118cdaa7000000000000000000000000000000000000000000000000000000008152600401611bbd9190611f4e565b60405180910390fd5b565b60008060009054906101000a900473ffffffffffffffffffffffffffffffffffffffff169050816000806101000a81548173ffffffffffffffffffffffffffffffffffffffff021916908373ffffffffffffffffffffffffffffffffffffffff1602179055508173ffffffffffffffffffffffffffffffffffffffff168173ffffffffffffffffffffffffffffffffffffffff167f8be0079c531659141344cd1fd0a4f28419497f9722a3daafe3b4186f6b6457e060405160405180910390a35050565b600033905090565b600080fd5b6000819050919050565b611cac81611c99565b8114611cb757600080fd5b50565b600081359050611cc981611ca3565b92915050565b600073ffffffffffffffffffffffffffffffffffffffff82169050919050565b6000611cfa82611ccf565b9050919050565b611d0a81611cef565b8114611d1557600080fd5b50565b600081359050611d2781611d01565b92915050565b60008060408385031215611d4457611d43611c94565b5b6000611d5285828601611cba565b9250506020611d6385828601611d18565b9150509250929050565b600060208284031215611d8357611d82611c94565b5b6000611d9184828501611d18565b91505092915050565b6000819050919050565b611dad81611d9a565b82525050565b6000602082019050611dc86000830184611da4565b92915050565b600060208284031215611de457611de3611c94565b5b6000611df284828501611cba565b91505092915050565b611e0481611cef565b82525050565b60008115159050919050565b611e1f81611e0a565b82525050565b6000608082019050611e3a6000830187611dfb565b611e476020830186611dfb565b611e546040830185611da4565b611e616060830184611e16565b95945050505050565b60008060408385031215611e8157611e80611c94565b5b6000611e8f85828601611d18565b9250506020611ea085828601611d18565b9150509250929050565b611eb381611c99565b82525050565b6000602082019050611ece6000830184611eaa565b92915050565b6000819050919050565b6000611ef9611ef4611eef84611ccf565b611ed4565b611ccf565b9050919050565b6000611f0b82611ede565b9050919050565b6000611f1d82611f00565b9050919050565b611f2d81611f12565b82525050565b6000602082019050611f486000830184611f24565b92915050565b6000602082019050611f636000830184611dfb565b92915050565b6000602082019050611f7e6000830184611e16565b92915050565b600082825260208201905092915050565b7f4d61746368206e6f742061637469766500000000000000000000000000000000600082015250565b6000611fcb601083611f84565b9150611fd682611f95565b602082019050919050565b60006020820190508181036000830152611ffa81611fbe565b9050919050565b7f496e76616c69642077696e6e6572000000000000000000000000000000000000600082015250565b6000612037600e83611f84565b915061204282612001565b602082019050919050565b600060208201905081810360008301526120668161202a565b9050919050565b7f4e6f74206120706c6179657220696e2074686973206d61746368000000000000600082015250565b60006120a3601a83611f84565b91506120ae8261206d565b602082019050919050565b600060208201905081810360008301526120d281612096565b9050919050565b7f4e487b7100000000000000000000000000000000000000000000000000000000600052601160045260246000fd5b600061211382611d9a565b915061211e83611d9a565b925082820261212c81611d9a565b91508282048414831517612143576121426120d9565b5b5092915050565b600060408201905061215f6000830185611dfb565b61216c6020830184611da4565b9392505050565b600081905092915050565b50565b600061218e600083612173565b91506121998261217e565b600082019050919050565b60006121af82612181565b9150819050919050565b7f57696e6e696e6773207472616e73666572206661696c65640000000000000000600082015250565b60006121ef601883611f84565b91506121fa826121b9565b602082019050919050565b6000602082019050818103600083015261221e816121e2565b9050919050565b60008160601b9050919050565b600061223d82612225565b9050919050565b600061224f82612232565b9050919050565b61226761226282611cef565b612244565b82525050565b60006122798285612256565b6014820191506122898284612256565b6014820191508190509392505050565b6122a281611e0a565b81146122ad57600080fd5b50565b6000815190506122bf81612299565b92915050565b6000602082840312156122db576122da611c94565b5b60006122e9848285016122b0565b91505092915050565b7f55736572206e6f74207265676973746572656400000000000000000000000000600082015250565b6000612328601383611f84565b9150612333826122f2565b602082019050919050565b600060208201905081810360008301526123578161231b565b9050919050565b7f506c6179657220616c726561647920696e206d61746368000000000000000000600082015250565b6000612394601783611f84565b915061239f8261235e565b602082019050919050565b600060208201905081810360008301526123c381612387565b9050919050565b7f4e6f206d61746368207265717565737420666f756e6400000000000000000000600082015250565b6000612400601683611f84565b915061240b826123ca565b602082019050919050565b6000602082019050818103600083015261242f816123f3565b9050919050565b7f496e76616c6964206d6174636820726571756573740000000000000000000000600082015250565b600061246c601583611f84565b915061247782612436565b602082019050919050565b6000602082019050818103600083015261249b8161245f565b9050919050565b7f5374616b65206d757374206d6174636820706c61796572312773207374616b65600082015250565b60006124d8602083611f84565b91506124e3826124a2565b602082019050919050565b60006020820190508181036000830152612507816124cb565b9050919050565b6000819050919050565b61252961252482611d9a565b61250e565b82525050565b600061253b8286612256565b60148201915061254b8285612256565b60148201915061255b8284612518565b602082019150819050949350505050565b7f43616e6e6f7420706c617920796f757273656c66000000000000000000000000600082015250565b60006125a2601483611f84565b91506125ad8261256c565b602082019050919050565b600060208201905081810360008301526125d181612595565b9050919050565b7f4f70706f6e656e74206e6f742072656769737465726564000000000000000000600082015250565b600061260e601783611f84565b9150612619826125d8565b602082019050919050565b6000602082019050818103600083015261263d81612601565b9050919050565b7f4163636f756e7473206d757374206e6f74206265206c69737465640000000000600082015250565b600061267a601b83611f84565b915061268582612644565b602082019050919050565b600060208201905081810360008301526126a98161266d565b9050919050565b7f4f70706f6e656e7420616c726561647920696e206d6174636800000000000000600082015250565b60006126e6601983611f84565b91506126f1826126b0565b602082019050919050565b60006020820190508181036000830152612715816126d9565b9050919050565b7f5374616b6520746f6f206c6f7700000000000000000000000000000000000000600082015250565b6000612752600d83611f84565b915061275d8261271c565b602082019050919050565b6000602082019050818103600083015261278181612745565b9050919050565b7f4d6174636820616c726561647920726571756573746564000000000000000000600082015250565b60006127be601783611f84565b91506127c982612788565b602082019050919050565b600060208201905081810360008301526127ed816127b1565b9050919050565b7f5265656e7472616e637947756172643a207265656e7472616e742063616c6c00600082015250565b600061282a601f83611f84565b9150612835826127f4565b602082019050919050565b600060208201905081810360008301526128598161281d565b905091905056fea264697066735822122025b40e8a44bd82487a3e21f92f1fd99b26a745d328cc82c1223294ebad652ad664736f6c63430008140033",
  "linkReferences": {},
  "deployedLinkReferences": {}
}