{
  "_format": "hh-sol-artifact-1",
  "contractName": "GameUserMarketplace",
  "sourceName": "contracts/GameUserMarketplace.sol",
  "abi": [
    {
      "anonymous": false,
      "inputs": [
        {
          "indexed": false,
          "internalType": "uint256",
          "name": "sessionId",
          "type": "uint256"
        },
        {
          "indexed": false,
          "internalType": "address",
          "name": "player1",
          "type": "address"
        },
        {
          "indexed": false,
          "internalType": "uint256",
          "name": "stakeAmount",
          "type": "uint256"
        }
      ],
      "name": "GameCreated",
      "type": "event"
    },
    {
      "anonymous": false,
      "inputs": [
        {
          "indexed": false,
          "internalType": "uint256",
          "name": "sessionId",
          "type": "uint256"
        },
        {
          "indexed": false,
          "internalType": "address",
          "name": "winner",
          "type": "address"
        },
        {
          "indexed": false,
          "internalType": "uint256",
          "name": "amount",
          "type": "uint256"
        }
      ],
      "name": "GameEnded",
      "type": "event"
    },
    {
      "anonymous": false,
      "inputs": [
        {
          "indexed": false,
          "internalType": "uint256",
          "name": "sessionId",
          "type": "uint256"
        },
        {
          "indexed": false,
          "internalType": "address",
          "name": "player2",
          "type": "address"
        }
      ],
      "name": "PlayerJoined",
      "type": "event"
    },
    {
      "anonymous": false,
      "inputs": [
        {
          "indexed": false,
          "internalType": "string",
          "name": "username",
          "type": "string"
        },
        {
          "indexed": false,
          "internalType": "uint256",
          "name": "price",
          "type": "uint256"
        }
      ],
      "name": "ProfileListed",
      "type": "event"
    },
    {
      "anonymous": false,
      "inputs": [
        {
          "indexed": false,
          "internalType": "string",
          "name": "username",
          "type": "string"
        },
        {
          "indexed": false,
          "internalType": "address",
          "name": "oldOwner",
          "type": "address"
        },
        {
          "indexed": false,
          "internalType": "address",
          "name": "newOwner",
          "type": "address"
        },
        {
          "indexed": false,
          "internalType": "uint256",
          "name": "price",
          "type": "uint256"
        }
      ],
      "name": "ProfileSold",
      "type": "event"
    },
    {
      "anonymous": false,
      "inputs": [
        {
          "indexed": false,
          "internalType": "string",
          "name": "username",
          "type": "string"
        },
        {
          "indexed": false,
          "internalType": "address",
          "name": "owner",
          "type": "address"
        }
      ],
      "name": "UsernameRegistered",
      "type": "event"
    },
    {
      "anonymous": false,
      "inputs": [
        {
          "indexed": false,
          "internalType": "string",
          "name": "username",
          "type": "string"
        },
        {
          "indexed": false,
          "internalType": "uint256",
          "name": "newXP",
          "type": "uint256"
        }
      ],
      "name": "XPUpdated",
      "type": "event"
    },
    {
      "inputs": [
        {
          "internalType": "address",
          "name": "",
          "type": "address"
        }
      ],
      "name": "addressToUsername",
      "outputs": [
        {
          "internalType": "string",
          "name": "",
          "type": "string"
        }
      ],
      "stateMutability": "view",
      "type": "function"
    },
    {
      "inputs": [
        {
          "internalType": "address",
          "name": "",
          "type": "address"
        },
        {
          "internalType": "uint256",
          "name": "",
          "type": "uint256"
        }
      ],
      "name": "addressToUsernames",
      "outputs": [
        {
          "internalType": "string",
          "name": "",
          "type": "string"
        }
      ],
      "stateMutability": "view",
      "type": "function"
    },
    {
      "inputs": [
        {
          "internalType": "string",
          "name": "_username",
          "type": "string"
        }
      ],
      "name": "buyProfile",
      "outputs": [],
      "stateMutability": "payable",
      "type": "function"
    },
    {
      "inputs": [
        {
          "internalType": "uint256",
          "name": "_stakeAmount",
          "type": "uint256"
        }
      ],
      "name": "createGame",
      "outputs": [
        {
          "internalType": "uint256",
          "name": "",
          "type": "uint256"
        }
      ],
      "stateMutability": "payable",
      "type": "function"
    },
    {
      "inputs": [],
      "name": "emergencyWithdraw",
      "outputs": [],
      "stateMutability": "nonpayable",
      "type": "function"
    },
    {
      "inputs": [
        {
          "internalType": "uint256",
          "name": "_sessionId",
          "type": "uint256"
        },
        {
          "internalType": "address",
          "name": "_winner",
          "type": "address"
        },
        {
          "internalType": "string",
          "name": "_player1Username",
          "type": "string"
        },
        {
          "internalType": "uint256",
          "name": "_player1XP",
          "type": "uint256"
        },
        {
          "internalType": "string",
          "name": "_player2Username",
          "type": "string"
        },
        {
          "internalType": "uint256",
          "name": "_player2XP",
          "type": "uint256"
        }
      ],
      "name": "endGame",
      "outputs": [],
      "stateMutability": "nonpayable",
      "type": "function"
    },
    {
      "inputs": [],
      "name": "gameSessionCounter",
      "outputs": [
        {
          "internalType": "uint256",
          "name": "",
          "type": "uint256"
        }
      ],
      "stateMutability": "view",
      "type": "function"
    },
    {
      "inputs": [
        {
          "internalType": "uint256",
          "name": "",
          "type": "uint256"
        }
      ],
      "name": "gameSessions",
      "outputs": [
        {
          "internalType": "address",
          "name": "player1",
          "type": "address"
        },
        {
          "internalType": "address",
          "name": "player2",
          "type": "address"
        },
        {
          "internalType": "uint256",
          "name": "stakeAmount",
          "type": "uint256"
        },
        {
          "internalType": "bool",
          "name": "isActive",
          "type": "bool"
        },
        {
          "internalType": "bool",
          "name": "hasStake",
          "type": "bool"
        }
      ],
      "stateMutability": "view",
      "type": "function"
    },
    {
      "inputs": [],
      "name": "getContractBalance",
      "outputs": [
        {
          "internalType": "uint256",
          "name": "",
          "type": "uint256"
        }
      ],
      "stateMutability": "view",
      "type": "function"
    },
    {
      "inputs": [
        {
          "internalType": "uint256",
          "name": "_sessionId",
          "type": "uint256"
        }
      ],
      "name": "getGameSession",
      "outputs": [
        {
          "components": [
            {
              "internalType": "address",
              "name": "player1",
              "type": "address"
            },
            {
              "internalType": "address",
              "name": "player2",
              "type": "address"
            },
            {
              "internalType": "uint256",
              "name": "stakeAmount",
              "type": "uint256"
            },
            {
              "internalType": "bool",
              "name": "isActive",
              "type": "bool"
            },
            {
              "internalType": "bool",
              "name": "hasStake",
              "type": "bool"
            }
          ],
          "internalType": "struct GameUserMarketplace.GameSession",
          "name": "",
          "type": "tuple"
        }
      ],
      "stateMutability": "view",
      "type": "function"
    },
    {
      "inputs": [
        {
          "internalType": "string",
          "name": "_username",
          "type": "string"
        }
      ],
      "name": "getProfile",
      "outputs": [
        {
          "components": [
            {
              "internalType": "string",
              "name": "username",
              "type": "string"
            },
            {
              "internalType": "uint256",
              "name": "xp",
              "type": "uint256"
            },
            {
              "internalType": "address",
              "name": "owner",
              "type": "address"
            },
            {
              "internalType": "bool",
              "name": "isListed",
              "type": "bool"
            },
            {
              "internalType": "uint256",
              "name": "price",
              "type": "uint256"
            }
          ],
          "internalType": "struct GameUserMarketplace.UserProfile",
          "name": "",
          "type": "tuple"
        }
      ],
      "stateMutability": "view",
      "type": "function"
    },
    {
      "inputs": [
        {
          "internalType": "address",
          "name": "_user",
          "type": "address"
        }
      ],
      "name": "getUserUsernames",
      "outputs": [
        {
          "internalType": "string[]",
          "name": "",
          "type": "string[]"
        }
      ],
      "stateMutability": "view",
      "type": "function"
    },
    {
      "inputs": [
        {
          "internalType": "string",
          "name": "_username",
          "type": "string"
        }
      ],
      "name": "isProfileListed",
      "outputs": [
        {
          "internalType": "bool",
          "name": "",
          "type": "bool"
        },
        {
          "internalType": "uint256",
          "name": "",
          "type": "uint256"
        }
      ],
      "stateMutability": "view",
      "type": "function"
    },
    {
      "inputs": [
        {
          "internalType": "uint256",
          "name": "_sessionId",
          "type": "uint256"
        }
      ],
      "name": "joinGame",
      "outputs": [],
      "stateMutability": "payable",
      "type": "function"
    },
    {
      "inputs": [
        {
          "internalType": "string",
          "name": "_username",
          "type": "string"
        },
        {
          "internalType": "uint256",
          "name": "_price",
          "type": "uint256"
        }
      ],
      "name": "listProfile",
      "outputs": [],
      "stateMutability": "nonpayable",
      "type": "function"
    },
    {
      "inputs": [
        {
          "internalType": "string",
          "name": "",
          "type": "string"
        }
      ],
      "name": "profiles",
      "outputs": [
        {
          "internalType": "string",
          "name": "username",
          "type": "string"
        },
        {
          "internalType": "uint256",
          "name": "xp",
          "type": "uint256"
        },
        {
          "internalType": "address",
          "name": "owner",
          "type": "address"
        },
        {
          "internalType": "bool",
          "name": "isListed",
          "type": "bool"
        },
        {
          "internalType": "uint256",
          "name": "price",
          "type": "uint256"
        }
      ],
      "stateMutability": "view",
      "type": "function"
    },
    {
      "inputs": [
        {
          "internalType": "string",
          "name": "_username",
          "type": "string"
        }
      ],
      "name": "registerUsername",
      "outputs": [],
      "stateMutability": "nonpayable",
      "type": "function"
    },
    {
      "inputs": [
        {
          "internalType": "string",
          "name": "_username",
          "type": "string"
        }
      ],
      "name": "unlistProfile",
      "outputs": [],
      "stateMutability": "nonpayable",
      "type": "function"
    },
    {
      "inputs": [
        {
          "internalType": "string",
          "name": "",
          "type": "string"
        }
      ],
      "name": "usernameExists",
      "outputs": [
        {
          "internalType": "bool",
          "name": "",
          "type": "bool"
        }
      ],
      "stateMutability": "view",
      "type": "function"
    },
    {
      "inputs": [
        {
          "internalType": "string",
          "name": "",
          "type": "string"
        }
      ],
      "name": "usernameToAddress",
      "outputs": [
        {
          "internalType": "address",
          "name": "",
          "type": "address"
        }
      ],
      "stateMutability": "view",
      "type": "function"
    }
  ],
  "bytecode": "0x608060405234801561001057600080fd5b50613817806100206000396000f3fe60806040526004361061011f5760003560e01c80638ab06fea116100a0578063e07a0baa11610064578063e07a0baa1461040c578063efaa55a014610449578063f0c4936414610465578063f309e3f91461048e578063f825f143146104cb5761011f565b80638ab06fea14610311578063af9071161461034e578063cba521e214610377578063db2e21bc146103b8578063df791d2d146103cf5761011f565b806336a94134116100e757806336a94134146102395780633e6b711a1461026257806348e837b91461028d578063693f9fc3146102bd5780636f9fb98a146102e65761011f565b80630126c428146101245780630de986931461014057806317c9d9151461017d578063224b70c0146101ba57806334a8014b146101f8575b600080fd5b61013e60048036038101906101399190612588565b610508565b005b34801561014c57600080fd5b5061016760048036038101906101629190612588565b6108e5565b604051610174919061273b565b60405180910390f35b34801561018957600080fd5b506101a4600480360381019061019f9190612789565b610a34565b6040516101b19190612878565b60405180910390f35b3480156101c657600080fd5b506101e160048036038101906101dc9190612588565b610b4c565b6040516101ef9291906128b8565b60405180910390f35b34801561020457600080fd5b5061021f600480360381019061021a919061290d565b610ca7565b604051610230959493929190612949565b60405180910390f35b34801561024557600080fd5b50610260600480360381019061025b9190612588565b610d37565b005b34801561026e57600080fd5b50610277611236565b604051610284919061299c565b60405180910390f35b6102a760048036038101906102a2919061290d565b61123c565b6040516102b4919061299c565b60405180910390f35b3480156102c957600080fd5b506102e460048036038101906102df91906129b7565b611432565b005b3480156102f257600080fd5b506102fb611951565b604051610308919061299c565b60405180910390f35b34801561031d57600080fd5b506103386004803603810190610333919061290d565b611959565b6040516103459190612ae4565b60405180910390f35b34801561035a57600080fd5b5061037560048036038101906103709190612aff565b611a72565b005b34801561038357600080fd5b5061039e60048036038101906103999190612588565b611c00565b6040516103af959493929190612ba5565b60405180910390f35b3480156103c457600080fd5b506103cd611d01565b005b3480156103db57600080fd5b506103f660048036038101906103f19190612bff565b611d4a565b6040516104039190612c3f565b60405180910390f35b34801561041857600080fd5b50610433600480360381019061042e9190612789565b611e03565b6040516104409190612c3f565b60405180910390f35b610463600480360381019061045e919061290d565b611ea3565b005b34801561047157600080fd5b5061048c60048036038101906104879190612588565b61219a565b005b34801561049a57600080fd5b506104b560048036038101906104b09190612588565b6122ac565b6040516104c29190612c61565b60405180910390f35b3480156104d757600080fd5b506104f260048036038101906104ed9190612588565b6122e2565b6040516104ff9190612c7c565b60405180910390f35b600060048260405161051a9190612cd3565b908152602001604051809103902090508060020160149054906101000a900460ff1661057b576040517f08c379a000000000000000000000000000000000000000000000000000000000815260040161057290612d36565b60405180910390fd5b806003015434146105c1576040517f08c379a00000000000000000000000000000000000000000000000000000000081526004016105b890612da2565b60405180910390fd5b3373ffffffffffffffffffffffffffffffffffffffff168160020160009054906101000a900473ffffffffffffffffffffffffffffffffffffffff1673ffffffffffffffffffffffffffffffffffffffff1603610653576040517f08c379a000000000000000000000000000000000000000000000000000000000815260040161064a90612e0e565b60405180910390fd5b60008160020160009054906101000a900473ffffffffffffffffffffffffffffffffffffffff169050604051806020016040528060008152506000808373ffffffffffffffffffffffffffffffffffffffff1673ffffffffffffffffffffffffffffffffffffffff16815260200190815260200160002090816106d6919061303a565b50336001846040516106e89190612cd3565b908152602001604051809103902060006101000a81548173ffffffffffffffffffffffffffffffffffffffff021916908373ffffffffffffffffffffffffffffffffffffffff160217905550826000803373ffffffffffffffffffffffffffffffffffffffff1673ffffffffffffffffffffffffffffffffffffffff168152602001908152602001600020908161077f919061303a565b50600360003373ffffffffffffffffffffffffffffffffffffffff1673ffffffffffffffffffffffffffffffffffffffff168152602001908152602001600020839080600181540180825580915050600190039060005260206000200160009091909190915090816107f1919061303a565b50338260020160006101000a81548173ffffffffffffffffffffffffffffffffffffffff021916908373ffffffffffffffffffffffffffffffffffffffff16021790555060008260020160146101000a81548160ff021916908315150217905550600082600301819055508073ffffffffffffffffffffffffffffffffffffffff166108fc349081150290604051600060405180830381858888f193505050501580156108a2573d6000803e3d6000fd5b507fa079943ee9dfbf994fe6a635bf294a20b17ecf2d247776c38fedcf524af8fe3c838233346040516108d8949392919061310c565b60405180910390a1505050565b6108ed61232b565b6004826040516108fd9190612cd3565b90815260200160405180910390206040518060a001604052908160008201805461092690612e5d565b80601f016020809104026020016040519081016040528092919081815260200182805461095290612e5d565b801561099f5780601f106109745761010080835404028352916020019161099f565b820191906000526020600020905b81548152906001019060200180831161098257829003601f168201915b50505050508152602001600182015481526020016002820160009054906101000a900473ffffffffffffffffffffffffffffffffffffffff1673ffffffffffffffffffffffffffffffffffffffff1673ffffffffffffffffffffffffffffffffffffffff1681526020016002820160149054906101000a900460ff161515151581526020016003820154815250509050919050565b6060600360008373ffffffffffffffffffffffffffffffffffffffff1673ffffffffffffffffffffffffffffffffffffffff168152602001908152602001600020805480602002602001604051908101604052809291908181526020016000905b82821015610b41578382906000526020600020018054610ab490612e5d565b80601f0160208091040260200160405190810160405280929190818152602001828054610ae090612e5d565b8015610b2d5780601f10610b0257610100808354040283529160200191610b2d565b820191906000526020600020905b815481529060010190602001808311610b1057829003601f168201915b505050505081526020019060010190610a95565b505050509050919050565b6000806000600484604051610b619190612cd3565b90815260200160405180910390206040518060a0016040529081600082018054610b8a90612e5d565b80601f0160208091040260200160405190810160405280929190818152602001828054610bb690612e5d565b8015610c035780601f10610bd857610100808354040283529160200191610c03565b820191906000526020600020905b815481529060010190602001808311610be657829003601f168201915b50505050508152602001600182015481526020016002820160009054906101000a900473ffffffffffffffffffffffffffffffffffffffff1673ffffffffffffffffffffffffffffffffffffffff1673ffffffffffffffffffffffffffffffffffffffff1681526020016002820160149054906101000a900460ff161515151581526020016003820154815250509050806060015181608001519250925050915091565b60056020528060005260406000206000915090508060000160009054906101000a900473ffffffffffffffffffffffffffffffffffffffff16908060010160009054906101000a900473ffffffffffffffffffffffffffffffffffffffff16908060020154908060030160009054906101000a900460ff16908060030160019054906101000a900460ff16905085565b80600281604051610d489190612cd3565b908152602001604051809103902060009054906101000a900460ff1615610da4576040517f08c379a0000000000000000000000000000000000000000000000000000000008152600401610d9b906131a4565b60405180910390fd5b6000825111610de8576040517f08c379a0000000000000000000000000000000000000000000000000000000008152600401610ddf90613210565b60405180910390fd5b60008060003373ffffffffffffffffffffffffffffffffffffffff1673ffffffffffffffffffffffffffffffffffffffff1681526020019081526020016000208054610e3390612e5d565b80601f0160208091040260200160405190810160405280929190818152602001828054610e5f90612e5d565b8015610eac5780601f10610e8157610100808354040283529160200191610eac565b820191906000526020600020905b815481529060010190602001808311610e8f57829003601f168201915b50505050509050600081511115610fb2576000600282604051610ecf9190612cd3565b908152602001604051809103902060006101000a81548160ff021916908315150217905550600181604051610f049190612cd3565b908152602001604051809103902060006101000a81549073ffffffffffffffffffffffffffffffffffffffff0219169055600481604051610f459190612cd3565b908152602001604051809103902060008082016000610f649190612372565b60018201600090556002820160006101000a81549073ffffffffffffffffffffffffffffffffffffffff02191690556002820160146101000a81549060ff0219169055600382016000905550505b826000803373ffffffffffffffffffffffffffffffffffffffff1673ffffffffffffffffffffffffffffffffffffffff1681526020019081526020016000209081610ffd919061303a565b503360018460405161100f9190612cd3565b908152602001604051809103902060006101000a81548173ffffffffffffffffffffffffffffffffffffffff021916908373ffffffffffffffffffffffffffffffffffffffff160217905550600160028460405161106d9190612cd3565b908152602001604051809103902060006101000a81548160ff021916908315150217905550600360003373ffffffffffffffffffffffffffffffffffffffff1673ffffffffffffffffffffffffffffffffffffffff16815260200190815260200160002083908060018154018082558091505060019003906000526020600020016000909190919091509081611103919061303a565b506040518060a00160405280848152602001600081526020013373ffffffffffffffffffffffffffffffffffffffff16815260200160001515815260200160008152506004846040516111569190612cd3565b90815260200160405180910390206000820151816000019081611179919061303a565b506020820151816001015560408201518160020160006101000a81548173ffffffffffffffffffffffffffffffffffffffff021916908373ffffffffffffffffffffffffffffffffffffffff16021790555060608201518160020160146101000a81548160ff021916908315150217905550608082015181600301559050507f928747cd3b0fd842c3278d01d3cd835c3bb83de390e88933021fa6657be6312f8333604051611229929190613230565b60405180910390a1505050565b60065481565b60008082111561128957813414611288576040517f08c379a000000000000000000000000000000000000000000000000000000000815260040161127f906132ac565b60405180910390fd5b5b60006006600081548092919061129e906132fb565b9190505590506040518060a001604052803373ffffffffffffffffffffffffffffffffffffffff168152602001600073ffffffffffffffffffffffffffffffffffffffff1681526020018481526020016001151581526020016000851115158152506005600083815260200190815260200160002060008201518160000160006101000a81548173ffffffffffffffffffffffffffffffffffffffff021916908373ffffffffffffffffffffffffffffffffffffffff16021790555060208201518160010160006101000a81548173ffffffffffffffffffffffffffffffffffffffff021916908373ffffffffffffffffffffffffffffffffffffffff1602179055506040820151816002015560608201518160030160006101000a81548160ff02191690831515021790555060808201518160030160016101000a81548160ff0219169083151502179055509050507f7dfb67e9ff596fca4da65c7eedb128cd1aac553af54b3c0cb733625a2480d8bd81338560405161142193929190613343565b60405180910390a180915050919050565b856006548110611477576040517f08c379a000000000000000000000000000000000000000000000000000000000815260040161146e906133c6565b60405180910390fd5b6005600082815260200190815260200160002060030160009054906101000a900460ff166114da576040517f08c379a00000000000000000000000000000000000000000000000000000000081526004016114d190613432565b60405180910390fd5b6000600560008981526020019081526020016000209050600073ffffffffffffffffffffffffffffffffffffffff168160010160009054906101000a900473ffffffffffffffffffffffffffffffffffffffff1673ffffffffffffffffffffffffffffffffffffffff1603611584576040517f08c379a000000000000000000000000000000000000000000000000000000000815260040161157b9061349e565b60405180910390fd5b8060000160009054906101000a900473ffffffffffffffffffffffffffffffffffffffff1673ffffffffffffffffffffffffffffffffffffffff168773ffffffffffffffffffffffffffffffffffffffff16148061163157508060010160009054906101000a900473ffffffffffffffffffffffffffffffffffffffff1673ffffffffffffffffffffffffffffffffffffffff168773ffffffffffffffffffffffffffffffffffffffff16145b611670576040517f08c379a00000000000000000000000000000000000000000000000000000000081526004016116679061350a565b60405180910390fd5b60008160030160006101000a81548160ff02191690831515021790555060008160030160019054906101000a900460ff1680156116b1575060008260020154115b1561170557816002015490508773ffffffffffffffffffffffffffffffffffffffff166108fc829081150290604051600060405180830381858888f19350505050158015611703573d6000803e3d6000fd5b505b600087511180156117a357508160000160009054906101000a900473ffffffffffffffffffffffffffffffffffffffff1673ffffffffffffffffffffffffffffffffffffffff1660018860405161175c9190612cd3565b908152602001604051809103902060009054906101000a900473ffffffffffffffffffffffffffffffffffffffff1673ffffffffffffffffffffffffffffffffffffffff16145b1561180857856004886040516117b99190612cd3565b9081526020016040518091039020600101819055507f19aae1ebea7d7793cb0e65b9d7d53a46156b9b55ee531d8d69059c033a2c853c87876040516117ff92919061352a565b60405180910390a15b600085511180156118a657508160010160009054906101000a900473ffffffffffffffffffffffffffffffffffffffff1673ffffffffffffffffffffffffffffffffffffffff1660018660405161185f9190612cd3565b908152602001604051809103902060009054906101000a900473ffffffffffffffffffffffffffffffffffffffff1673ffffffffffffffffffffffffffffffffffffffff16145b1561190b57836004866040516118bc9190612cd3565b9081526020016040518091039020600101819055507f19aae1ebea7d7793cb0e65b9d7d53a46156b9b55ee531d8d69059c033a2c853c858560405161190292919061352a565b60405180910390a15b7ff1898de79c348962fab7695532341027e5bceb0ea2a8785790fa7d7efeeee12989898360405161193e93929190613343565b60405180910390a1505050505050505050565b600047905090565b6119616123b2565b600560008381526020019081526020016000206040518060a00160405290816000820160009054906101000a900473ffffffffffffffffffffffffffffffffffffffff1673ffffffffffffffffffffffffffffffffffffffff1673ffffffffffffffffffffffffffffffffffffffff1681526020016001820160009054906101000a900473ffffffffffffffffffffffffffffffffffffffff1673ffffffffffffffffffffffffffffffffffffffff1673ffffffffffffffffffffffffffffffffffffffff168152602001600282015481526020016003820160009054906101000a900460ff161515151581526020016003820160019054906101000a900460ff1615151515815250509050919050565b813373ffffffffffffffffffffffffffffffffffffffff16600182604051611a9a9190612cd3565b908152602001604051809103902060009054906101000a900473ffffffffffffffffffffffffffffffffffffffff1673ffffffffffffffffffffffffffffffffffffffff1614611b1f576040517f08c379a0000000000000000000000000000000000000000000000000000000008152600401611b16906135a6565b60405180910390fd5b60008211611b62576040517f08c379a0000000000000000000000000000000000000000000000000000000008152600401611b5990613612565b60405180910390fd5b6001600484604051611b749190612cd3565b908152602001604051809103902060020160146101000a81548160ff02191690831515021790555081600484604051611bad9190612cd3565b9081526020016040518091039020600301819055507fd0530ae730755e04b874d83e4343c8b3107eb63c71fd41761b19697534d47bc78383604051611bf392919061352a565b60405180910390a1505050565b600481805160208101820180518482526020830160208501208183528095505050505050600091509050806000018054611c3990612e5d565b80601f0160208091040260200160405190810160405280929190818152602001828054611c6590612e5d565b8015611cb25780601f10611c8757610100808354040283529160200191611cb2565b820191906000526020600020905b815481529060010190602001808311611c9557829003601f168201915b5050505050908060010154908060020160009054906101000a900473ffffffffffffffffffffffffffffffffffffffff16908060020160149054906101000a900460ff16908060030154905085565b3373ffffffffffffffffffffffffffffffffffffffff166108fc479081150290604051600060405180830381858888f19350505050158015611d47573d6000803e3d6000fd5b50565b60036020528160005260406000208181548110611d6657600080fd5b90600052602060002001600091509150508054611d8290612e5d565b80601f0160208091040260200160405190810160405280929190818152602001828054611dae90612e5d565b8015611dfb5780601f10611dd057610100808354040283529160200191611dfb565b820191906000526020600020905b815481529060010190602001808311611dde57829003601f168201915b505050505081565b60006020528060005260406000206000915090508054611e2290612e5d565b80601f0160208091040260200160405190810160405280929190818152602001828054611e4e90612e5d565b8015611e9b5780601f10611e7057610100808354040283529160200191611e9b565b820191906000526020600020905b815481529060010190602001808311611e7e57829003601f168201915b505050505081565b806006548110611ee8576040517f08c379a0000000000000000000000000000000000000000000000000000000008152600401611edf906133c6565b60405180910390fd5b6005600082815260200190815260200160002060030160009054906101000a900460ff16611f4b576040517f08c379a0000000000000000000000000000000000000000000000000000000008152600401611f4290613432565b60405180910390fd5b6000600560008481526020019081526020016000209050600073ffffffffffffffffffffffffffffffffffffffff168160010160009054906101000a900473ffffffffffffffffffffffffffffffffffffffff1673ffffffffffffffffffffffffffffffffffffffff1614611ff5576040517f08c379a0000000000000000000000000000000000000000000000000000000008152600401611fec9061367e565b60405180910390fd5b3373ffffffffffffffffffffffffffffffffffffffff168160000160009054906101000a900473ffffffffffffffffffffffffffffffffffffffff1673ffffffffffffffffffffffffffffffffffffffff1603612087576040517f08c379a000000000000000000000000000000000000000000000000000000000815260040161207e906136ea565b60405180910390fd5b8060030160019054906101000a900460ff16156120e557806002015434146120e4576040517f08c379a00000000000000000000000000000000000000000000000000000000081526004016120db90613756565b60405180910390fd5b5b338160010160006101000a81548173ffffffffffffffffffffffffffffffffffffffff021916908373ffffffffffffffffffffffffffffffffffffffff1602179055508060030160019054906101000a900460ff161561215c5760028160020160008282546121549190613776565b925050819055505b7f87969bc7faf902221a147b95ceba76e011c5efb0339a0a8ee7a2bb82d9cfbbd6833360405161218d9291906137b8565b60405180910390a1505050565b803373ffffffffffffffffffffffffffffffffffffffff166001826040516121c29190612cd3565b908152602001604051809103902060009054906101000a900473ffffffffffffffffffffffffffffffffffffffff1673ffffffffffffffffffffffffffffffffffffffff1614612247576040517f08c379a000000000000000000000000000000000000000000000000000000000815260040161223e906135a6565b60405180910390fd5b60006004836040516122599190612cd3565b908152602001604051809103902060020160146101000a81548160ff02191690831515021790555060006004836040516122939190612cd3565b9081526020016040518091039020600301819055505050565b6002818051602081018201805184825260208301602085012081835280955050505050506000915054906101000a900460ff1681565b6001818051602081018201805184825260208301602085012081835280955050505050506000915054906101000a900473ffffffffffffffffffffffffffffffffffffffff1681565b6040518060a001604052806060815260200160008152602001600073ffffffffffffffffffffffffffffffffffffffff168152602001600015158152602001600081525090565b50805461237e90612e5d565b6000825580601f1061239057506123af565b601f0160209004906000526020600020908101906123ae9190612411565b5b50565b6040518060a00160405280600073ffffffffffffffffffffffffffffffffffffffff168152602001600073ffffffffffffffffffffffffffffffffffffffff168152602001600081526020016000151581526020016000151581525090565b5b8082111561242a576000816000905550600101612412565b5090565b6000604051905090565b600080fd5b600080fd5b600080fd5b600080fd5b6000601f19601f8301169050919050565b7f4e487b7100000000000000000000000000000000000000000000000000000000600052604160045260246000fd5b6124958261244c565b810181811067ffffffffffffffff821117156124b4576124b361245d565b5b80604052505050565b60006124c761242e565b90506124d3828261248c565b919050565b600067ffffffffffffffff8211156124f3576124f261245d565b5b6124fc8261244c565b9050602081019050919050565b82818337600083830152505050565b600061252b612526846124d8565b6124bd565b90508281526020810184848401111561254757612546612447565b5b612552848285612509565b509392505050565b600082601f83011261256f5761256e612442565b5b813561257f848260208601612518565b91505092915050565b60006020828403121561259e5761259d612438565b5b600082013567ffffffffffffffff8111156125bc576125bb61243d565b5b6125c88482850161255a565b91505092915050565b600081519050919050565b600082825260208201905092915050565b60005b8381101561260b5780820151818401526020810190506125f0565b60008484015250505050565b6000612622826125d1565b61262c81856125dc565b935061263c8185602086016125ed565b6126458161244c565b840191505092915050565b6000819050919050565b61266381612650565b82525050565b600073ffffffffffffffffffffffffffffffffffffffff82169050919050565b600061269482612669565b9050919050565b6126a481612689565b82525050565b60008115159050919050565b6126bf816126aa565b82525050565b600060a08301600083015184820360008601526126e28282612617565b91505060208301516126f7602086018261265a565b50604083015161270a604086018261269b565b50606083015161271d60608601826126b6565b506080830151612730608086018261265a565b508091505092915050565b6000602082019050818103600083015261275581846126c5565b905092915050565b61276681612689565b811461277157600080fd5b50565b6000813590506127838161275d565b92915050565b60006020828403121561279f5761279e612438565b5b60006127ad84828501612774565b91505092915050565b600081519050919050565b600082825260208201905092915050565b6000819050602082019050919050565b60006127ee8383612617565b905092915050565b6000602082019050919050565b600061280e826127b6565b61281881856127c1565b93508360208202850161282a856127d2565b8060005b85811015612866578484038952815161284785826127e2565b9450612852836127f6565b925060208a0199505060018101905061282e565b50829750879550505050505092915050565b600060208201905081810360008301526128928184612803565b905092915050565b6128a3816126aa565b82525050565b6128b281612650565b82525050565b60006040820190506128cd600083018561289a565b6128da60208301846128a9565b9392505050565b6128ea81612650565b81146128f557600080fd5b50565b600081359050612907816128e1565b92915050565b60006020828403121561292357612922612438565b5b6000612931848285016128f8565b91505092915050565b61294381612689565b82525050565b600060a08201905061295e600083018861293a565b61296b602083018761293a565b61297860408301866128a9565b612985606083018561289a565b612992608083018461289a565b9695505050505050565b60006020820190506129b160008301846128a9565b92915050565b60008060008060008060c087890312156129d4576129d3612438565b5b60006129e289828a016128f8565b96505060206129f389828a01612774565b955050604087013567ffffffffffffffff811115612a1457612a1361243d565b5b612a2089828a0161255a565b9450506060612a3189828a016128f8565b935050608087013567ffffffffffffffff811115612a5257612a5161243d565b5b612a5e89828a0161255a565b92505060a0612a6f89828a016128f8565b9150509295509295509295565b60a082016000820151612a92600085018261269b565b506020820151612aa5602085018261269b565b506040820151612ab8604085018261265a565b506060820151612acb60608501826126b6565b506080820151612ade60808501826126b6565b50505050565b600060a082019050612af96000830184612a7c565b92915050565b60008060408385031215612b1657612b15612438565b5b600083013567ffffffffffffffff811115612b3457612b3361243d565b5b612b408582860161255a565b9250506020612b51858286016128f8565b9150509250929050565b600082825260208201905092915050565b6000612b77826125d1565b612b818185612b5b565b9350612b918185602086016125ed565b612b9a8161244c565b840191505092915050565b600060a0820190508181036000830152612bbf8188612b6c565b9050612bce60208301876128a9565b612bdb604083018661293a565b612be8606083018561289a565b612bf560808301846128a9565b9695505050505050565b60008060408385031215612c1657612c15612438565b5b6000612c2485828601612774565b9250506020612c35858286016128f8565b9150509250929050565b60006020820190508181036000830152612c598184612b6c565b905092915050565b6000602082019050612c76600083018461289a565b92915050565b6000602082019050612c91600083018461293a565b92915050565b600081905092915050565b6000612cad826125d1565b612cb78185612c97565b9350612cc78185602086016125ed565b80840191505092915050565b6000612cdf8284612ca2565b915081905092915050565b7f50726f66696c65206e6f7420666f722073616c65000000000000000000000000600082015250565b6000612d20601483612b5b565b9150612d2b82612cea565b602082019050919050565b60006020820190508181036000830152612d4f81612d13565b9050919050565b7f496e636f7272656374207061796d656e7420616d6f756e740000000000000000600082015250565b6000612d8c601883612b5b565b9150612d9782612d56565b602082019050919050565b60006020820190508181036000830152612dbb81612d7f565b9050919050565b7f43616e6e6f742062757920796f7572206f776e2070726f66696c650000000000600082015250565b6000612df8601b83612b5b565b9150612e0382612dc2565b602082019050919050565b60006020820190508181036000830152612e2781612deb565b9050919050565b7f4e487b7100000000000000000000000000000000000000000000000000000000600052602260045260246000fd5b60006002820490506001821680612e7557607f821691505b602082108103612e8857612e87612e2e565b5b50919050565b60008190508160005260206000209050919050565b60006020601f8301049050919050565b600082821b905092915050565b600060088302612ef07fffffffffffffffffffffffffffffffffffffffffffffffffffffffffffffffff82612eb3565b612efa8683612eb3565b95508019841693508086168417925050509392505050565b6000819050919050565b6000612f37612f32612f2d84612650565b612f12565b612650565b9050919050565b6000819050919050565b612f5183612f1c565b612f65612f5d82612f3e565b848454612ec0565b825550505050565b600090565b612f7a612f6d565b612f85818484612f48565b505050565b5b81811015612fa957612f9e600082612f72565b600181019050612f8b565b5050565b601f821115612fee57612fbf81612e8e565b612fc884612ea3565b81016020851015612fd7578190505b612feb612fe385612ea3565b830182612f8a565b50505b505050565b600082821c905092915050565b600061301160001984600802612ff3565b1980831691505092915050565b600061302a8383613000565b9150826002028217905092915050565b613043826125d1565b67ffffffffffffffff81111561305c5761305b61245d565b5b6130668254612e5d565b613071828285612fad565b600060209050601f8311600181146130a45760008415613092578287015190505b61309c858261301e565b865550613104565b601f1984166130b286612e8e565b60005b828110156130da578489015182556001820191506020850194506020810190506130b5565b868310156130f757848901516130f3601f891682613000565b8355505b6001600288020188555050505b505050505050565b600060808201905081810360008301526131268187612b6c565b9050613135602083018661293a565b613142604083018561293a565b61314f60608301846128a9565b95945050505050565b7f557365726e616d6520616c726561647920657869737473000000000000000000600082015250565b600061318e601783612b5b565b915061319982613158565b602082019050919050565b600060208201905081810360008301526131bd81613181565b9050919050565b7f557365726e616d652063616e6e6f7420626520656d7074790000000000000000600082015250565b60006131fa601883612b5b565b9150613205826131c4565b602082019050919050565b60006020820190508181036000830152613229816131ed565b9050919050565b6000604082019050818103600083015261324a8185612b6c565b9050613259602083018461293a565b9392505050565b7f496e636f7272656374207374616b6520616d6f756e742073656e740000000000600082015250565b6000613296601b83612b5b565b91506132a182613260565b602082019050919050565b600060208201905081810360008301526132c581613289565b9050919050565b7f4e487b7100000000000000000000000000000000000000000000000000000000600052601160045260246000fd5b600061330682612650565b91507fffffffffffffffffffffffffffffffffffffffffffffffffffffffffffffffff8203613338576133376132cc565b5b600182019050919050565b600060608201905061335860008301866128a9565b613365602083018561293a565b61337260408301846128a9565b949350505050565b7f496e76616c69642073657373696f6e2049440000000000000000000000000000600082015250565b60006133b0601283612b5b565b91506133bb8261337a565b602082019050919050565b600060208201905081810360008301526133df816133a3565b9050919050565b7f47616d652073657373696f6e206e6f7420616374697665000000000000000000600082015250565b600061341c601783612b5b565b9150613427826133e6565b602082019050919050565b6000602082019050818103600083015261344b8161340f565b9050919050565b7f47616d65206e656564732074776f20706c617965727300000000000000000000600082015250565b6000613488601683612b5b565b915061349382613452565b602082019050919050565b600060208201905081810360008301526134b78161347b565b9050919050565b7f496e76616c69642077696e6e6572000000000000000000000000000000000000600082015250565b60006134f4600e83612b5b565b91506134ff826134be565b602082019050919050565b60006020820190508181036000830152613523816134e7565b9050919050565b600060408201905081810360008301526135448185612b6c565b905061355360208301846128a9565b9392505050565b7f4e6f7420757365726e616d65206f776e65720000000000000000000000000000600082015250565b6000613590601283612b5b565b915061359b8261355a565b602082019050919050565b600060208201905081810360008301526135bf81613583565b9050919050565b7f5072696365206d7573742062652067726561746572207468616e203000000000600082015250565b60006135fc601c83612b5b565b9150613607826135c6565b602082019050919050565b6000602082019050818103600083015261362b816135ef565b9050919050565b7f47616d6520616c7265616479206861732074776f20706c617965727300000000600082015250565b6000613668601c83612b5b565b915061367382613632565b602082019050919050565b600060208201905081810360008301526136978161365b565b9050919050565b7f43616e6e6f74206a6f696e20796f7572206f776e2067616d6500000000000000600082015250565b60006136d4601983612b5b565b91506136df8261369e565b602082019050919050565b60006020820190508181036000830152613703816136c7565b9050919050565b7f496e636f7272656374207374616b6520616d6f756e7400000000000000000000600082015250565b6000613740601683612b5b565b915061374b8261370a565b602082019050919050565b6000602082019050818103600083015261376f81613733565b9050919050565b600061378182612650565b915061378c83612650565b925082820261379a81612650565b915082820484148315176137b1576137b06132cc565b5b5092915050565b60006040820190506137cd60008301856128a9565b6137da602083018461293a565b939250505056fea2646970667358221220cf2f7c53961321a9ddd3aa2814f868e24150ca44dcf8fcc531d344966439f3d864736f6c63430008130033",
  "linkReferences": {},
  "deployedLinkReferences": {}
}