{
  "_format": "hh-sol-artifact-1",
  "contractName": "Marketplace",
  "sourceName": "contracts/Marketplace.sol",
  "abi": [
    {
      "inputs": [
        {
          "internalType": "address",
          "name": "initialOwner",
          "type": "address"
        },
        {
          "internalType": "address",
          "name": "_userManager",
          "type": "address"
        }
      ],
      "stateMutability": "nonpayable",
      "type": "constructor"
    },
    {
      "inputs": [
        {
          "internalType": "address",
          "name": "owner",
          "type": "address"
        }
      ],
      "name": "OwnableInvalidOwner",
      "type": "error"
    },
    {
      "inputs": [
        {
          "internalType": "address",
          "name": "account",
          "type": "address"
        }
      ],
      "name": "OwnableUnauthorizedAccount",
      "type": "error"
    },
    {
      "anonymous": false,
      "inputs": [
        {
          "indexed": true,
          "internalType": "string",
          "name": "username",
          "type": "string"
        },
        {
          "indexed": false,
          "internalType": "uint256",
          "name": "price",
          "type": "uint256"
        },
        {
          "indexed": false,
          "internalType": "uint256",
          "name": "xp",
          "type": "uint256"
        }
      ],
      "name": "AccountListed",
      "type": "event"
    },
    {
      "anonymous": false,
      "inputs": [
        {
          "indexed": true,
          "internalType": "string",
          "name": "username",
          "type": "string"
        },
        {
          "indexed": true,
          "internalType": "address",
          "name": "oldOwner",
          "type": "address"
        },
        {
          "indexed": true,
          "internalType": "address",
          "name": "newOwner",
          "type": "address"
        },
        {
          "indexed": false,
          "internalType": "uint256",
          "name": "price",
          "type": "uint256"
        }
      ],
      "name": "AccountSold",
      "type": "event"
    },
    {
      "anonymous": false,
      "inputs": [
        {
          "indexed": true,
          "internalType": "string",
          "name": "username",
          "type": "string"
        }
      ],
      "name": "ListingCancelled",
      "type": "event"
    },
    {
      "anonymous": false,
      "inputs": [
        {
          "indexed": true,
          "internalType": "address",
          "name": "previousOwner",
          "type": "address"
        },
        {
          "indexed": true,
          "internalType": "address",
          "name": "newOwner",
          "type": "address"
        }
      ],
      "name": "OwnershipTransferred",
      "type": "event"
    },
    {
      "inputs": [
        {
          "internalType": "string",
          "name": "",
          "type": "string"
        }
      ],
      "name": "accountListings",
      "outputs": [
        {
          "internalType": "address",
          "name": "owner",
          "type": "address"
        },
        {
          "internalType": "uint256",
          "name": "price",
          "type": "uint256"
        },
        {
          "internalType": "uint256",
          "name": "xpSnapshot",
          "type": "uint256"
        },
        {
          "internalType": "bool",
          "name": "active",
          "type": "bool"
        }
      ],
      "stateMutability": "view",
      "type": "function"
    },
    {
      "inputs": [
        {
          "internalType": "string",
          "name": "username",
          "type": "string"
        }
      ],
      "name": "buyAccount",
      "outputs": [],
      "stateMutability": "payable",
      "type": "function"
    },
    {
      "inputs": [
        {
          "internalType": "string",
          "name": "username",
          "type": "string"
        }
      ],
      "name": "cancelListing",
      "outputs": [],
      "stateMutability": "nonpayable",
      "type": "function"
    },
    {
      "inputs": [],
      "name": "getListedAccounts",
      "outputs": [
        {
          "internalType": "string[]",
          "name": "usernames",
          "type": "string[]"
        },
        {
          "internalType": "uint256[]",
          "name": "xps",
          "type": "uint256[]"
        },
        {
          "internalType": "uint256[]",
          "name": "prices",
          "type": "uint256[]"
        }
      ],
      "stateMutability": "view",
      "type": "function"
    },
    {
      "inputs": [
        {
          "internalType": "string",
          "name": "username",
          "type": "string"
        }
      ],
      "name": "isAccountListed",
      "outputs": [
        {
          "internalType": "bool",
          "name": "",
          "type": "bool"
        }
      ],
      "stateMutability": "view",
      "type": "function"
    },
    {
      "inputs": [
        {
          "internalType": "string",
          "name": "username",
          "type": "string"
        },
        {
          "internalType": "uint256",
          "name": "price",
          "type": "uint256"
        }
      ],
      "name": "listAccountForSale",
      "outputs": [],
      "stateMutability": "nonpayable",
      "type": "function"
    },
    {
      "inputs": [
        {
          "internalType": "uint256",
          "name": "",
          "type": "uint256"
        }
      ],
      "name": "listedUsernames",
      "outputs": [
        {
          "internalType": "string",
          "name": "",
          "type": "string"
        }
      ],
      "stateMutability": "view",
      "type": "function"
    },
    {
      "inputs": [],
      "name": "mainContract",
      "outputs": [
        {
          "internalType": "address",
          "name": "",
          "type": "address"
        }
      ],
      "stateMutability": "view",
      "type": "function"
    },
    {
      "inputs": [],
      "name": "owner",
      "outputs": [
        {
          "internalType": "address",
          "name": "",
          "type": "address"
        }
      ],
      "stateMutability": "view",
      "type": "function"
    },
    {
      "inputs": [],
      "name": "renounceOwnership",
      "outputs": [],
      "stateMutability": "nonpayable",
      "type": "function"
    },
    {
      "inputs": [
        {
          "internalType": "address",
          "name": "_mainContract",
          "type": "address"
        }
      ],
      "name": "setMainContract",
      "outputs": [],
      "stateMutability": "nonpayable",
      "type": "function"
    },
    {
      "inputs": [
        {
          "internalType": "address",
          "name": "newOwner",
          "type": "address"
        }
      ],
      "name": "transferOwnership",
      "outputs": [],
      "stateMutability": "nonpayable",
      "type": "function"
    },
    {
      "inputs": [],
      "name": "userManager",
      "outputs": [
        {
          "internalType": "contract IUserManager",
          "name": "",
          "type": "address"
        }
      ],
      "stateMutability": "view",
      "type": "function"
    }
  ],
  "bytecode": "0x60806040523480156200001157600080fd5b50604051620030983803806200309883398181016040528101906200003791906200023d565b81600073ffffffffffffffffffffffffffffffffffffffff168173ffffffffffffffffffffffffffffffffffffffff1603620000ad5760006040517f1e4fbdf7000000000000000000000000000000000000000000000000000000008152600401620000a4919062000295565b60405180910390fd5b620000be816200010f60201b60201c565b506001808190555080600460006101000a81548173ffffffffffffffffffffffffffffffffffffffff021916908373ffffffffffffffffffffffffffffffffffffffff1602179055505050620002b2565b60008060009054906101000a900473ffffffffffffffffffffffffffffffffffffffff169050816000806101000a81548173ffffffffffffffffffffffffffffffffffffffff021916908373ffffffffffffffffffffffffffffffffffffffff1602179055508173ffffffffffffffffffffffffffffffffffffffff168173ffffffffffffffffffffffffffffffffffffffff167f8be0079c531659141344cd1fd0a4f28419497f9722a3daafe3b4186f6b6457e060405160405180910390a35050565b600080fd5b600073ffffffffffffffffffffffffffffffffffffffff82169050919050565b60006200020582620001d8565b9050919050565b6200021781620001f8565b81146200022357600080fd5b50565b60008151905062000237816200020c565b92915050565b60008060408385031215620002575762000256620001d3565b5b6000620002678582860162000226565b92505060206200027a8582860162000226565b9150509250929050565b6200028f81620001f8565b82525050565b6000602082019050620002ac600083018462000284565b92915050565b612dd680620002c26000396000f3fe6080604052600436106100c25760003560e01c806380baad951161007f578063943f226111610059578063943f22611461025c578063d270e7ab14610285578063e809933d146102b0578063f2fde38b146102dd576100c2565b806380baad95146101b457806383231e3a146101f15780638da5cb5b14610231576100c2565b80632b67d965146100c75780633cb7a2c3146101045780633ded33bc146101205780635a6a9204146101495780635c8a768714610172578063715018a61461019d575b600080fd5b3480156100d357600080fd5b506100ee60048036038101906100e99190611961565b610306565b6040516100fb9190611a1e565b60405180910390f35b61011e60048036038101906101199190611aa5565b6103b2565b005b34801561012c57600080fd5b5061014760048036038101906101429190611b50565b610820565b005b34801561015557600080fd5b50610170600480360381019061016b9190611b7d565b61086c565b005b34801561017e57600080fd5b50610187610df2565b6040516101949190611c3c565b60405180910390f35b3480156101a957600080fd5b506101b2610e18565b005b3480156101c057600080fd5b506101db60048036038101906101d69190611aa5565b610e2c565b6040516101e89190611c72565b60405180910390f35b3480156101fd57600080fd5b5061021860048036038101906102139190611dbd565b610e67565b6040516102289493929190611e24565b60405180910390f35b34801561023d57600080fd5b50610246610eda565b6040516102539190611e69565b60405180910390f35b34801561026857600080fd5b50610283600480360381019061027e9190611aa5565b610f03565b005b34801561029157600080fd5b5061029a6110e7565b6040516102a79190611e69565b60405180910390f35b3480156102bc57600080fd5b506102c561110d565b6040516102d49392919061204e565b60405180910390f35b3480156102e957600080fd5b5061030460048036038101906102ff9190611b50565b611488565b005b6003818154811061031657600080fd5b906000526020600020016000915090508054610331906120c9565b80601f016020809104026020016040519081016040528092919081815260200182805461035d906120c9565b80156103aa5780601f1061037f576101008083540402835291602001916103aa565b820191906000526020600020905b81548152906001019060200180831161038d57829003601f168201915b505050505081565b6103ba61150e565b6000600283836040516103ce92919061212a565b908152602001604051809103902090508060030160009054906101000a900460ff1661042f576040517f08c379a00000000000000000000000000000000000000000000000000000000081526004016104269061218f565b60405180910390fd5b8060010154341015610476576040517f08c379a000000000000000000000000000000000000000000000000000000000815260040161046d906121fb565b60405180910390fd5b8060000160009054906101000a900473ffffffffffffffffffffffffffffffffffffffff1673ffffffffffffffffffffffffffffffffffffffff163373ffffffffffffffffffffffffffffffffffffffff1603610508576040517f08c379a00000000000000000000000000000000000000000000000000000000081526004016104ff90612267565b60405180910390fd5b60008160000160009054906101000a900473ffffffffffffffffffffffffffffffffffffffff169050600082600101549050600083600201549050600460009054906101000a900473ffffffffffffffffffffffffffffffffffffffff1673ffffffffffffffffffffffffffffffffffffffff166368bc604487878633866040518663ffffffff1660e01b81526004016105a69594939291906122b4565b600060405180830381600087803b1580156105c057600080fd5b505af11580156105d4573d6000803e3d6000fd5b5050505061062586868080601f016020809104026020016040519081016040528093929190818152602001838380828437600081840152601f19601f8201169050808301925050505050505061155d565b60008373ffffffffffffffffffffffffffffffffffffffff168360405161064b90612333565b60006040518083038185875af1925050503d8060008114610688576040519150601f19603f3d011682016040523d82523d6000602084013e61068d565b606091505b50509050806106d1576040517f08c379a00000000000000000000000000000000000000000000000000000000081526004016106c890612394565b60405180910390fd5b823411156107925760003373ffffffffffffffffffffffffffffffffffffffff1684346106fe91906123e3565b60405161070a90612333565b60006040518083038185875af1925050503d8060008114610747576040519150601f19603f3d011682016040523d82523d6000602084013e61074c565b606091505b5050905080610790576040517f08c379a000000000000000000000000000000000000000000000000000000000815260040161078790612463565b60405180910390fd5b505b3373ffffffffffffffffffffffffffffffffffffffff168473ffffffffffffffffffffffffffffffffffffffff1688886040516107d092919061212a565b60405180910390207f0a536069f5b334e8da62a017b3224648e8d57ddcc3e0fe270f0a08b468d2e9fe866040516108079190612483565b60405180910390a4505050505061081c61175e565b5050565b610828611767565b80600560006101000a81548173ffffffffffffffffffffffffffffffffffffffff021916908373ffffffffffffffffffffffffffffffffffffffff16021790555050565b61087461150e565b600460009054906101000a900473ffffffffffffffffffffffffffffffffffffffff1673ffffffffffffffffffffffffffffffffffffffff16630e666e49336040518263ffffffff1660e01b81526004016108cf9190611e69565b602060405180830381865afa1580156108ec573d6000803e3d6000fd5b505050506040513d601f19601f8201168201806040525081019061091091906124ca565b61094f576040517f08c379a000000000000000000000000000000000000000000000000000000000815260040161094690612543565b60405180910390fd5b600460009054906101000a900473ffffffffffffffffffffffffffffffffffffffff1673ffffffffffffffffffffffffffffffffffffffff16638f3529c13385856040518463ffffffff1660e01b81526004016109ae93929190612563565b602060405180830381865afa1580156109cb573d6000803e3d6000fd5b505050506040513d601f19601f820116820180604052508101906109ef91906124ca565b610a2e576040517f08c379a0000000000000000000000000000000000000000000000000000000008152600401610a25906125e1565b60405180910390fd5b600460009054906101000a900473ffffffffffffffffffffffffffffffffffffffff1673ffffffffffffffffffffffffffffffffffffffff1663091c18aa336040518263ffffffff1660e01b8152600401610a899190611e69565b602060405180830381865afa158015610aa6573d6000803e3d6000fd5b505050506040513d601f19601f82011682018060405250810190610aca91906124ca565b15610b0a576040517f08c379a0000000000000000000000000000000000000000000000000000000008152600401610b019061264d565b60405180910390fd5b60008111610b4d576040517f08c379a0000000000000000000000000000000000000000000000000000000008152600401610b44906126b9565b60405180910390fd5b6000600460009054906101000a900473ffffffffffffffffffffffffffffffffffffffff1673ffffffffffffffffffffffffffffffffffffffff1663e9e7eb35336040518263ffffffff1660e01b8152600401610baa9190611e69565b602060405180830381865afa158015610bc7573d6000803e3d6000fd5b505050506040513d601f19601f82011682018060405250810190610beb91906126ee565b905060405180608001604052803373ffffffffffffffffffffffffffffffffffffffff1681526020018381526020018281526020016001151581525060028585604051610c3992919061212a565b908152602001604051809103902060008201518160000160006101000a81548173ffffffffffffffffffffffffffffffffffffffff021916908373ffffffffffffffffffffffffffffffffffffffff160217905550602082015181600101556040820151816002015560608201518160030160006101000a81548160ff021916908315150217905550905050600460009054906101000a900473ffffffffffffffffffffffffffffffffffffffff1673ffffffffffffffffffffffffffffffffffffffff1663907e6d633360016040518363ffffffff1660e01b8152600401610d2392919061271b565b600060405180830381600087803b158015610d3d57600080fd5b505af1158015610d51573d6000803e3d6000fd5b505050506003848490918060018154018082558091505060019003906000526020600020016000909192909192909192909192509182610d929291906128f1565b508383604051610da392919061212a565b60405180910390207f969a829c728bb3881e13d5cf84283856e26dd0cdc41fa4c004fe3e2b71fa9ba58383604051610ddc9291906129c1565b60405180910390a250610ded61175e565b505050565b600460009054906101000a900473ffffffffffffffffffffffffffffffffffffffff1681565b610e20611767565b610e2a60006117ee565b565b600060028383604051610e4092919061212a565b908152602001604051809103902060030160009054906101000a900460ff16905092915050565b6002818051602081018201805184825260208301602085012081835280955050505050506000915090508060000160009054906101000a900473ffffffffffffffffffffffffffffffffffffffff16908060010154908060020154908060030160009054906101000a900460ff16905084565b60008060009054906101000a900473ffffffffffffffffffffffffffffffffffffffff16905090565b600460009054906101000a900473ffffffffffffffffffffffffffffffffffffffff1673ffffffffffffffffffffffffffffffffffffffff16638f3529c13384846040518463ffffffff1660e01b8152600401610f6293929190612563565b602060405180830381865afa158015610f7f573d6000803e3d6000fd5b505050506040513d601f19601f82011682018060405250810190610fa391906124ca565b610fe2576040517f08c379a0000000000000000000000000000000000000000000000000000000008152600401610fd9906125e1565b60405180910390fd5b60028282604051610ff492919061212a565b908152602001604051809103902060030160009054906101000a900460ff16611052576040517f08c379a00000000000000000000000000000000000000000000000000000000081526004016110499061218f565b60405180910390fd5b61109f82828080601f016020809104026020016040519081016040528093929190818152602001838380828437600081840152601f19601f8201169050808301925050505050505061155d565b81816040516110af92919061212a565b60405180910390207fff1b3c121274b35b78cfc6a06d69993757efa24b0a666779050b1266aade87c660405160405180910390a25050565b600560009054906101000a900473ffffffffffffffffffffffffffffffffffffffff1681565b60608060606000805b60038054905081101561119657600260038281548110611139576111386129ea565b5b906000526020600020016040516111509190612a9c565b908152602001604051809103902060030160009054906101000a900460ff161561118357818061117f90612ab3565b9250505b808061118e90612ab3565b915050611116565b508067ffffffffffffffff8111156111b1576111b0611c92565b5b6040519080825280602002602001820160405280156111e457816020015b60608152602001906001900390816111cf5790505b5093508067ffffffffffffffff81111561120157611200611c92565b5b60405190808252806020026020018201604052801561122f5781602001602082028036833780820191505090505b5092508067ffffffffffffffff81111561124c5761124b611c92565b5b60405190808252806020026020018201604052801561127a5781602001602082028036833780820191505090505b5091506000805b600380549050811015611480576000600382815481106112a4576112a36129ea565b5b9060005260206000200180546112b9906120c9565b80601f01602080910402602001604051908101604052809291908181526020018280546112e5906120c9565b80156113325780601f1061130757610100808354040283529160200191611332565b820191906000526020600020905b81548152906001019060200180831161131557829003601f168201915b50505050509050600060028260405161134b9190612b2c565b90815260200160405180910390206040518060800160405290816000820160009054906101000a900473ffffffffffffffffffffffffffffffffffffffff1673ffffffffffffffffffffffffffffffffffffffff1673ffffffffffffffffffffffffffffffffffffffff16815260200160018201548152602001600282015481526020016003820160009054906101000a900460ff161515151581525050905080606001511561146b5781888581518110611409576114086129ea565b5b6020026020010181905250806040015187858151811061142c5761142b6129ea565b5b60200260200101818152505080602001518685815181106114505761144f6129ea565b5b602002602001018181525050838061146790612ab3565b9450505b5050808061147890612ab3565b915050611281565b505050909192565b611490611767565b600073ffffffffffffffffffffffffffffffffffffffff168173ffffffffffffffffffffffffffffffffffffffff16036115025760006040517f1e4fbdf70000000000000000000000000000000000000000000000000000000081526004016114f99190611e69565b60405180910390fd5b61150b816117ee565b50565b600260015403611553576040517f08c379a000000000000000000000000000000000000000000000000000000000815260040161154a90612b8f565b60405180910390fd5b6002600181905550565b600060028260405161156f9190612b2c565b908152602001604051809103902060030160006101000a81548160ff021916908315150217905550600460009054906101000a900473ffffffffffffffffffffffffffffffffffffffff1673ffffffffffffffffffffffffffffffffffffffff1663907e6d636002836040516115e59190612b2c565b908152602001604051809103902060000160009054906101000a900473ffffffffffffffffffffffffffffffffffffffff1660006040518363ffffffff1660e01b815260040161163692919061271b565b600060405180830381600087803b15801561165057600080fd5b505af1158015611664573d6000803e3d6000fd5b5050505060005b60038054905081101561175a57818051906020012060038281548110611694576116936129ea565b5b906000526020600020016040516116ab9190612c47565b60405180910390200361174757600360016003805490506116cc91906123e3565b815481106116dd576116dc6129ea565b5b90600052602060002001600382815481106116fb576116fa6129ea565b5b9060005260206000200190816117119190612c89565b50600380548061172457611723612d71565b5b60019003818190600052602060002001600061174091906118ba565b905561175a565b808061175290612ab3565b91505061166b565b5050565b60018081905550565b61176f6118b2565b73ffffffffffffffffffffffffffffffffffffffff1661178d610eda565b73ffffffffffffffffffffffffffffffffffffffff16146117ec576117b06118b2565b6040517f118cdaa70000000000000000000000000000000000000000000000000000000081526004016117e39190611e69565b60405180910390fd5b565b60008060009054906101000a900473ffffffffffffffffffffffffffffffffffffffff169050816000806101000a81548173ffffffffffffffffffffffffffffffffffffffff021916908373ffffffffffffffffffffffffffffffffffffffff1602179055508173ffffffffffffffffffffffffffffffffffffffff168173ffffffffffffffffffffffffffffffffffffffff167f8be0079c531659141344cd1fd0a4f28419497f9722a3daafe3b4186f6b6457e060405160405180910390a35050565b600033905090565b5080546118c6906120c9565b6000825580601f106118d857506118f7565b601f0160209004906000526020600020908101906118f691906118fa565b5b50565b5b808211156119135760008160009055506001016118fb565b5090565b6000604051905090565b600080fd5b600080fd5b6000819050919050565b61193e8161192b565b811461194957600080fd5b50565b60008135905061195b81611935565b92915050565b60006020828403121561197757611976611921565b5b60006119858482850161194c565b91505092915050565b600081519050919050565b600082825260208201905092915050565b60005b838110156119c85780820151818401526020810190506119ad565b60008484015250505050565b6000601f19601f8301169050919050565b60006119f08261198e565b6119fa8185611999565b9350611a0a8185602086016119aa565b611a13816119d4565b840191505092915050565b60006020820190508181036000830152611a3881846119e5565b905092915050565b600080fd5b600080fd5b600080fd5b60008083601f840112611a6557611a64611a40565b5b8235905067ffffffffffffffff811115611a8257611a81611a45565b5b602083019150836001820283011115611a9e57611a9d611a4a565b5b9250929050565b60008060208385031215611abc57611abb611921565b5b600083013567ffffffffffffffff811115611ada57611ad9611926565b5b611ae685828601611a4f565b92509250509250929050565b600073ffffffffffffffffffffffffffffffffffffffff82169050919050565b6000611b1d82611af2565b9050919050565b611b2d81611b12565b8114611b3857600080fd5b50565b600081359050611b4a81611b24565b92915050565b600060208284031215611b6657611b65611921565b5b6000611b7484828501611b3b565b91505092915050565b600080600060408486031215611b9657611b95611921565b5b600084013567ffffffffffffffff811115611bb457611bb3611926565b5b611bc086828701611a4f565b93509350506020611bd38682870161194c565b9150509250925092565b6000819050919050565b6000611c02611bfd611bf884611af2565b611bdd565b611af2565b9050919050565b6000611c1482611be7565b9050919050565b6000611c2682611c09565b9050919050565b611c3681611c1b565b82525050565b6000602082019050611c516000830184611c2d565b92915050565b60008115159050919050565b611c6c81611c57565b82525050565b6000602082019050611c876000830184611c63565b92915050565b600080fd5b7f4e487b7100000000000000000000000000000000000000000000000000000000600052604160045260246000fd5b611cca826119d4565b810181811067ffffffffffffffff82111715611ce957611ce8611c92565b5b80604052505050565b6000611cfc611917565b9050611d088282611cc1565b919050565b600067ffffffffffffffff821115611d2857611d27611c92565b5b611d31826119d4565b9050602081019050919050565b82818337600083830152505050565b6000611d60611d5b84611d0d565b611cf2565b905082815260208101848484011115611d7c57611d7b611c8d565b5b611d87848285611d3e565b509392505050565b600082601f830112611da457611da3611a40565b5b8135611db4848260208601611d4d565b91505092915050565b600060208284031215611dd357611dd2611921565b5b600082013567ffffffffffffffff811115611df157611df0611926565b5b611dfd84828501611d8f565b91505092915050565b611e0f81611b12565b82525050565b611e1e8161192b565b82525050565b6000608082019050611e396000830187611e06565b611e466020830186611e15565b611e536040830185611e15565b611e606060830184611c63565b95945050505050565b6000602082019050611e7e6000830184611e06565b92915050565b600081519050919050565b600082825260208201905092915050565b6000819050602082019050919050565b600082825260208201905092915050565b6000611ecc8261198e565b611ed68185611eb0565b9350611ee68185602086016119aa565b611eef816119d4565b840191505092915050565b6000611f068383611ec1565b905092915050565b6000602082019050919050565b6000611f2682611e84565b611f308185611e8f565b935083602082028501611f4285611ea0565b8060005b85811015611f7e5784840389528151611f5f8582611efa565b9450611f6a83611f0e565b925060208a01995050600181019050611f46565b50829750879550505050505092915050565b600081519050919050565b600082825260208201905092915050565b6000819050602082019050919050565b611fc58161192b565b82525050565b6000611fd78383611fbc565b60208301905092915050565b6000602082019050919050565b6000611ffb82611f90565b6120058185611f9b565b935061201083611fac565b8060005b838110156120415781516120288882611fcb565b975061203383611fe3565b925050600181019050612014565b5085935050505092915050565b600060608201905081810360008301526120688186611f1b565b9050818103602083015261207c8185611ff0565b905081810360408301526120908184611ff0565b9050949350505050565b7f4e487b7100000000000000000000000000000000000000000000000000000000600052602260045260246000fd5b600060028204905060018216806120e157607f821691505b6020821081036120f4576120f361209a565b5b50919050565b600081905092915050565b600061211183856120fa565b935061211e838584611d3e565b82840190509392505050565b6000612137828486612105565b91508190509392505050565b7f4163636f756e74206e6f74206c69737465640000000000000000000000000000600082015250565b6000612179601283611999565b915061218482612143565b602082019050919050565b600060208201905081810360008301526121a88161216c565b9050919050565b7f496e73756666696369656e74207061796d656e74000000000000000000000000600082015250565b60006121e5601483611999565b91506121f0826121af565b602082019050919050565b60006020820190508181036000830152612214816121d8565b9050919050565b7f43616e6e6f7420627579206f776e206163636f756e7400000000000000000000600082015250565b6000612251601683611999565b915061225c8261221b565b602082019050919050565b6000602082019050818103600083015261228081612244565b9050919050565b60006122938385611999565b93506122a0838584611d3e565b6122a9836119d4565b840190509392505050565b600060808201905081810360008301526122cf818789612287565b90506122de6020830186611e06565b6122eb6040830185611e06565b6122f86060830184611e15565b9695505050505050565b600081905092915050565b50565b600061231d600083612302565b91506123288261230d565b600082019050919050565b600061233e82612310565b9150819050919050565b7f5061796d656e74206661696c6564000000000000000000000000000000000000600082015250565b600061237e600e83611999565b915061238982612348565b602082019050919050565b600060208201905081810360008301526123ad81612371565b9050919050565b7f4e487b7100000000000000000000000000000000000000000000000000000000600052601160045260246000fd5b60006123ee8261192b565b91506123f98361192b565b9250828203905081811115612411576124106123b4565b5b92915050565b7f526566756e64206661696c656400000000000000000000000000000000000000600082015250565b600061244d600d83611999565b915061245882612417565b602082019050919050565b6000602082019050818103600083015261247c81612440565b9050919050565b60006020820190506124986000830184611e15565b92915050565b6124a781611c57565b81146124b257600080fd5b50565b6000815190506124c48161249e565b92915050565b6000602082840312156124e0576124df611921565b5b60006124ee848285016124b5565b91505092915050565b7f55736572206e6f74207265676973746572656400000000000000000000000000600082015250565b600061252d601383611999565b9150612538826124f7565b602082019050919050565b6000602082019050818103600083015261255c81612520565b9050919050565b60006040820190506125786000830186611e06565b818103602083015261258b818486612287565b9050949350505050565b7f4e6f7420757365726e616d65206f776e65720000000000000000000000000000600082015250565b60006125cb601283611999565b91506125d682612595565b602082019050919050565b600060208201905081810360008301526125fa816125be565b9050919050565b7f4163636f756e7420616c7265616479206c697374656400000000000000000000600082015250565b6000612637601683611999565b915061264282612601565b602082019050919050565b600060208201905081810360008301526126668161262a565b9050919050565b7f5072696365206d7573742062652067726561746572207468616e203000000000600082015250565b60006126a3601c83611999565b91506126ae8261266d565b602082019050919050565b600060208201905081810360008301526126d281612696565b9050919050565b6000815190506126e881611935565b92915050565b60006020828403121561270457612703611921565b5b6000612712848285016126d9565b91505092915050565b60006040820190506127306000830185611e06565b61273d6020830184611c63565b9392505050565b600082905092915050565b60008190508160005260206000209050919050565b60006020601f8301049050919050565b600082821b905092915050565b6000600883026127b17fffffffffffffffffffffffffffffffffffffffffffffffffffffffffffffffff82612774565b6127bb8683612774565b95508019841693508086168417925050509392505050565b60006127ee6127e96127e48461192b565b611bdd565b61192b565b9050919050565b6000819050919050565b612808836127d3565b61281c612814826127f5565b848454612781565b825550505050565b600090565b612831612824565b61283c8184846127ff565b505050565b5b8181101561286057612855600082612829565b600181019050612842565b5050565b601f8211156128a5576128768161274f565b61287f84612764565b8101602085101561288e578190505b6128a261289a85612764565b830182612841565b50505b505050565b600082821c905092915050565b60006128c8600019846008026128aa565b1980831691505092915050565b60006128e183836128b7565b9150826002028217905092915050565b6128fb8383612744565b67ffffffffffffffff81111561291457612913611c92565b5b61291e82546120c9565b612929828285612864565b6000601f8311600181146129585760008415612946578287013590505b61295085826128d5565b8655506129b8565b601f1984166129668661274f565b60005b8281101561298e57848901358255600182019150602085019450602081019050612969565b868310156129ab57848901356129a7601f8916826128b7565b8355505b6001600288020188555050505b50505050505050565b60006040820190506129d66000830185611e15565b6129e36020830184611e15565b9392505050565b7f4e487b7100000000000000000000000000000000000000000000000000000000600052603260045260246000fd5b60008154612a26816120c9565b612a3081866120fa565b94506001821660008114612a4b5760018114612a6057612a93565b60ff1983168652811515820286019350612a93565b612a698561274f565b60005b83811015612a8b57815481890152600182019150602081019050612a6c565b838801955050505b50505092915050565b6000612aa88284612a19565b915081905092915050565b6000612abe8261192b565b91507fffffffffffffffffffffffffffffffffffffffffffffffffffffffffffffffff8203612af057612aef6123b4565b5b600182019050919050565b6000612b068261198e565b612b1081856120fa565b9350612b208185602086016119aa565b80840191505092915050565b6000612b388284612afb565b915081905092915050565b7f5265656e7472616e637947756172643a207265656e7472616e742063616c6c00600082015250565b6000612b79601f83611999565b9150612b8482612b43565b602082019050919050565b60006020820190508181036000830152612ba881612b6c565b9050919050565b60008190508160005260206000209050919050565b60008154612bd1816120c9565b612bdb8186612302565b94506001821660008114612bf65760018114612c0b57612c3e565b60ff1983168652811515820286019350612c3e565b612c1485612baf565b60005b83811015612c3657815481890152600182019150602081019050612c17565b838801955050505b50505092915050565b6000612c538284612bc4565b915081905092915050565b600081549050612c6d816120c9565b9050919050565b60008190508160005260206000209050919050565b818103612c97575050612d6f565b612ca082612c5e565b67ffffffffffffffff811115612cb957612cb8611c92565b5b612cc382546120c9565b612cce828285612864565b6000601f831160018114612cfd5760008415612ceb578287015490505b612cf585826128d5565b865550612d68565b601f198416612d0b87612c74565b9650612d168661274f565b60005b82811015612d3e57848901548255600182019150600185019450602081019050612d19565b86831015612d5b5784890154612d57601f8916826128b7565b8355505b6001600288020188555050505b5050505050505b565b7f4e487b7100000000000000000000000000000000000000000000000000000000600052603160045260246000fdfea2646970667358221220764ce96a97b33d13d6e704af4c922724737bf20d20d64e14de180359f1cbe76464736f6c63430008140033",
  "linkReferences": {},
  "deployedLinkReferences": {}
}